:10000000EFC100000C945C140C9487140C94B2148F
:100010000C94DD140C9408150C9433150C945E1597
:100020000C9489150EC200000CC200000AC2000028
:1000300008C200000C94FB1C04C2000002C20000B5
:1000400000C20000FEC10000FCC10000FAC10000B7
:10005000F8C10000F6C10000F4C100000C94B41512
:10006000F0C100000C9492190C94C819EAC1000068
:10007000E8C10000E6C10000E4C10000E2C10000E8
:10008000E0C10000DEC10000DCC10000DAC10000F8
:100090000C941E1A0C94541AD4C10000D2C1000052
:1000A000D0C10000CEC10000CCC10000CAC1000018
:1000B000C8C10000C6C10000C4C10000C2C1000028
:1000C000C0C10000BEC100000C947E1D0C94AA1A91
:1000D0000C94E01AB6C100000C94361B0C946C1BF7
:1000E000B0C1000016171B1720172A173417AD17B9
:1000F0003E1746174E17581762176C177B17851750
:10010000AD178F179917A317D117D417C317C71790
:10011000CD170B18D817DC17E217E617EA17F017F8
:10012000F417F8170B18FE1702180618882547272A
:10013000B127B4278B26BE26472568252B258E2779
:100140007D278A27B427B427B427162507634236AC
:10015000B79BD8A71A39685618AEBAAB558C1D3C58
:10016000B7CC5763BD6DEDFD753EF6177231BF001C
:100170000000803F08000000BE922449123EABAA56
:10018000AA2ABECDCCCC4C3E00000080BEABAAAAB1
:10019000AA3E00000000BF000000803F00000000F9
:1001A00000084178D3BB4387D1133D190E3CC3BD32
:1001B0004282AD2B3E68EC8276BED98FE1A93E4CDF
:1001C00080EFFFBE01C4FF7F3F0000000000000081
:1001D0000A0B02090C0D0E080703040100000000C1
:1001E000000000000000000000000000000000000F
:1001F00000000000000000000000121110000000CC
:1002000000000000000000000000000000000000EE
:1002100000000000010210202008081020401020DB
:1002200040800201020108040201010204081020BA
:1002300040808040201008040201800402018040B8
:100240002010080402010804020101020408102021
:1002500040800102040810204080050505050705BF
:1002600008080808020202020A0A08080404040432
:10027000010101010101010103030303030303035E
:10028000040707070C0C0C0C0C0C0C0C02020202ED
:1002900006060606060606060B0B0B0B0B0B0B0BD6
:1002A00000002200250028002B002E003100340021
:1002B00002010000050108010B01000021002400DB
:1002C00027002A002D003000330001010000040146
:1002D00007010A0102001D3A2774694E53E8F5D25E
:1002E000CF9C81A6BBCDD0F7EAB9A4839E25381F49
:1002F00002514C6B76879ABDA0F3EEC9D46F72554C
:10030000481B06213C4A57706D3E230419A2BF9832
:1003100085D6CBECF1130E2934677A5D40FBE6C13C
:10032000DC8F92B5A8DEC3E4F9AAB7908D362B0C0A
:1003300011425F78659489AEB3E0FDDAC77C61460F
:100340005B0815322F5944637E2D30170AB1AC8BF0
:1003500096C5D8FFE2263B1C01524F6875CED3F4F8
:10036000E9BAA7809DEBF6D1CC9F82A5B8031E39D0
:1003700024776A4D50A1BC9B86D5C8EFF2495473CF
:100380006E3D20071A6C71564B1805223F8499BEAA
:10039000A3F0EDCAD735280F12415C7B66DDC0E7BC
:1003A000FAA9B4938EF8E5C2DF8C91B6AB100D2A92
:1003B0003764795E43B2AF8895C6DBFCE15A47608B
:1003C0007D2E3314097F6245580B16312C978AAD68
:1003D000B0E3FED9C400F1197D1A091B951B011C5D
:1003E00011241FBECFEFD1E2DEBFCDBF00E00CBFB6
:1003F00013E0A0E0B2E0E0E3FEE500E00BBF02C0E6
:1004000007900D92A43CB107D9F727E0A4ECB3E024
:1004100001C01D92AD39B207E1F711E0C0EFD1E0A4
:1004200000E006C021970109802FFE010E949A2D4D
:10043000CB3ED10780E00807A9F70E943C290C9425
:10044000162FDECD1F93CF93DF931F92CDB7DEB76C
:10045000162F61E0812F79830E940C18812F7981FA
:10046000972F0F90DF91CF911F9108950895CF930B
:10047000C82FCB01BA010E949A2A8C2FCF910C94DD
:10048000EF164F925F926F927F928F929F92AF92F0
:10049000BF92CF92DF92EF92FF92CF93DF93CDB7CF
:1004A000DEB760970FB6F894DEBF0FBECDBF2091C8
:1004B0008A0230918B0240918C0250918D026091A2
:1004C0007A0270917B0280917C0290917D020E9461
:1004D000812B6B017C018090860290908702A09016
:1004E0008802B09089029B01AC01C501B4010E9451
:1004F000CA299B01AC0160E070E080E89FE30E94A4
:10050000322A2B013C01A5019401C701B6010E94CA
:10051000C929A30192010E94812B4B015C016EE568
:1005200077E081E997E00E94BD1220919107309118
:100530009207409193075091940760918E027091B9
:100540008F0280919002909191020E94C9296B01C3
:100550007C018091620790916307A0916407B0913C
:10056000650789839A83AB83BC839C01AD01C50178
:10057000B4010E94812B4B015C0120916E023091ED
:100580006F024091700250917102C701B6010E9442
:10059000812BA50194010E94C9296D837E838F83DD
:1005A00098872091720230917302409174025091A9
:1005B0007502C701B6010E94812B20919E023091E5
:1005C0009F024091A0025091A1020E94812B4B01F9
:1005D0005C01209166073091670740916807509150
:1005E00069070E94CA2969877A878B879C8720912F
:1005F00092023091930240919402509195026D8144
:100600007E818F8198850E94812B6D877E878F8761
:10061000988B2091960230919702409198025091C8
:10062000990269817A818B819C810E94812B9B0137
:10063000AC016D857E858F8598890E94CA29A301AA
:1006400092010E94812B20917A0230917B0240918D
:100650007C0250917D020E94812B2B013C01209154
:100660007E0230917F024091800250918102C70149
:10067000B6010E94812B29853A854B855C850E94B5
:10068000CA299B01AC01C301B2010E94CA296B01B6
:100690007C016093950770939607809397079093DA
:1006A000980740908202509083026090840270907C
:1006B0008502A30192010E947D2B181684F04090C0
:1006C0007602509077026090780270907902A301D0
:1006D0009201C701B6010E942E2A87FF08C04092EE
:1006E00095075092960760929707709298074091ED
:1006F00095075091960760919707709198078091A0
:100700005C0790915D07B3DE6EE577E081E997E0E5
:100710000E9411148D819E81AF81B88580936207FC
:1007200090936307A0936407B093650729853A8582
:100730004B855C85C501B4010E94CA296093660798
:1007400070936707809368079093690781E090E052
:100750000E946B124091800750918107609182073F
:100760007091830780E090E00E94671280908C0770
:1007700090908D07A0908E07B0908F0720E030E01A
:1007800040E85FEBC501B4010E942E2A882331F1B5
:10079000C0908007D0908107E0908207F090830797
:1007A000A7019601C501B4010E94C9294B015C0152
:1007B00020E030E040E054E3C701B6010E94812B05
:1007C0009B01AC01C501B4010E947D2B181634F0C9
:1007D00080EC92E090936B0780936A07809190077A
:1007E000882331F080EC92E090936B0780936A0746
:1007F0008091840790918507A0918607B091870723
:10080000BC01CD016F5F7F4F8F4F9F4F6093840777
:100810007093850780938607909387070E94CB2A61
:10082000209188073091890740918A0750918B0762
:100830000E94812B609380077093810780938207C9
:100840009093830760960FB6F894DEBF0FBECDBFBE
:10085000DF91CF91FF90EF90DF90CF90BF90AF905E
:100860009F908F907F906F905F904F900895EF9240
:10087000FF920F931F93CF93DF93EAE6F7E087E2AF
:10088000DF011D928A95E9F780E090E0A0E8BFEBD8
:1008900082A393A3A4A3B5A38DEC9CECACECBDE325
:1008A000868F978FA0A3B1A389EC98E4A9E9BCEA4D
:1008B00084839583A683B7838BEB99E5AEE9B5E096
:1008C00080879187A287B38789E991E8A6E8B4E792
:1008D00084879587A687B78789EB96E7A4E1B5E07B
:1008E000808B918BA28BB38BAAEDB3E0B383A283F1
:1008F000C6EDD3E01196DC93CE9380E693E0998326
:1009000088839B838A838EE797E015969C938E93CA
:1009100014978EE697E013969C938E93129780E837
:1009200097E017969C938E93169788E0A1E9B7E01D
:10093000ED0119928A95E9F7C6E4D7E084E2DE0179
:100940001D928A95E9F724EC33E082E1D9011D92EA
:100950008A95E9F7358B248B8FE090E0F90191833C
:10096000808380E592E09383828382E392E09583A3
:10097000848386E192E0978386838AE092E0918780
:10098000808722E32E8393E39F8384E3888785E334
:10099000898786E38A8787E38B8788E38C8789E367
:1009A0008D8781E38E8730E33F87888B898B8A8BA5
:1009B0002B8B8C8B9D8B81E090E0A0E0B0E0898355
:1009C0009A83AB83BC83E12CF12C8701A8019701AA
:1009D0006DE070E080E090E035DD9F8B8E8B46DD32
:1009E00081E08D83E88EF98E0A8F1B8FEEE6F2E0B0
:1009F00084A595A5A6A5B7A58C8F9D8FAE8FBF8F1B
:100A000084A995A9A6A9B7A988A399A3AAA3BBA3BA
:100A1000DF91CF911F910F91FF90EF9008958091FA
:100A20004607811103C081E0809346070895EF9245
:100A3000FF920F931F93CF93DF93DC01EA01F9013B
:100A400014968D919C91159712960D911C91139768
:100A5000080F191F2881398118964D915C911997BB
:100A60004217530728F04D915C911197452B39F1AE
:100A70007801E21AF30A18964D915C911997481B78
:100A8000590B4E0D5F1D4617570794F1A901460FEC
:100A9000571F40175107E0F0F182E0823383228331
:100AA0006E197F0975836483161617061CF4382F98
:100AB000292F02C030E020E03683278313C0189628
:100AC0008D919C911997821B930B8617970784F041
:100AD0007183608333832283158214821782168286
:100AE00088819981680F791F7983688380E001C0CC
:100AF00081E0DF91CF911F910F91FF90EF900895CA
:100B0000CF92DF92EF92FF92CF93DF936B017C0144
:100B100084E48C9DE0018D9DD00D1124CA51DC4FE1
:100B20008AA99BA9009721F00E94652E1BAA1AAAE8
:100B300084E48C9DF0018D9DF00D1124EA51FC4F51
:100B400086A997A9009711F00E94652E84E48C9DD8
:100B5000F0018D9DF00D1124EA51FC4F138A128A89
:100B6000168A178A108E118E128E138E148E158E81
:100B7000168E178E10A211A281E090E093A382A39B
:100B800015A214A216A217A210A611A613A612A6A9
:100B900015A614A616A617A610AA11AA13AA12AA79
:100BA00015AA14AA17AA16AA11AE10AE12AE13AE49
:100BB00014AE15AEDF01DE961D921D921D921C92A1
:100BC0001397EE5BFF4F11821082DF91CF91FF9060
:100BD000EF90DF90CF9008950F931F93CF93DF9303
:100BE000EB01DC018D919C91FC01A681B781E8812C
:100BF000F98123E0EE0FFF1F2A95E1F712962D9160
:100C00003C911397E20FF31F00811181AC85BD85E4
:100C10009D01220F331FDC0112968D919C91139739
:100C2000D901A80FB91F8D919C9124813581232B67
:100C300019F461E070E002C062E070E0689F90012A
:100C4000699F300D789F300D112488859985289FE4
:100C5000B001299F700D389F700D1124EC81FD812A
:100C60002E9FC0012F9F900D3E9F900D1124800F4D
:100C7000911FFA019183808373836283DF91CF9107
:100C80001F910F9108952F923F924F925F926F9212
:100C90007F928F929F92AF92BF92CF92DF92EF920C
:100CA000FF920F931F93CF93DF9300D000D0CDB767
:100CB000DEB7DC011496ED91FC9115970190F0815F
:100CC000E02D808591859A838983A281B381BC833D
:100CD000AB83FB0181909190A190B1908F01C12CC9
:100CE000D12C7601C814D904EA04FB040CF05FC0CF
:100CF000D80114964D905D906D907C901797189642
:100D00004D915D916D917C911B97F8017096FE83DA
:100D1000ED83F801A081B18183E0AA0FBB1F8A9502
:100D2000E1F7E981FA8182819381A80FB91F2D90A3
:100D30003C901197F80124853585220F331F8B8154
:100D40009C81280F391FF9010081118114968D9122
:100D50009C911597892B19F481E090E002C082E004
:100D600090E0809F9001819F300D909F300D112465
:100D7000249F8001259F100D349F100D1124249D68
:100D8000C001259D900D349D900D1124A8016D8109
:100D90007E81820D931D0E94FD2E8D819E81080F04
:100DA000191F9FEFC91AD90AE90AF90A9BCF26969B
:100DB0000FB6F894DEBF0FBECDBFDF91CF911F916C
:100DC0000F91FF90EF90DF90CF90BF90AF909F90EA
:100DD0008F907F906F905F904F903F902F900895ED
:100DE000CF93DF93DB01AA55BD4F2C91222369F0ED
:100DF00024E4269FF001279FF00D1124EA51FC4FB7
:100E0000EF0119922A95E9F71C9224E4269FF0013C
:100E1000279FF00D1124EA51FC4F1482158216828F
:100E200017821186108613861286118A108A1786F9
:100E30001686DF91CF9164CE2F923F924F925F92B0
:100E40006F927F928F929F92AF92BF92CF92DF92DA
:100E5000EF92FF920F931F93CF93DF93CDB7DEB73F
:100E600028970FB6F894DEBF0FBECDBF6B017C0193
:100E70001A0184E48C9D90018D9D300D11242A511E
:100E80003C4FF90184819581A681B781892B8A2BFA
:100E90008B2B09F4B8C0A12CB12C412C512C320160
:100EA00038872F83C90104969A838983D9011896BC
:100EB000BC83AB83E981FA8180819181A281B38176
:100EC000481659066A067B0694F5AB81BC81ED9104
:100ED000FC91EA0DFB1D228133818901812C912C2B
:100EE00082149304C4F4D801ED91FC91309769F019
:100EF000848195812D833E830E94652EF801808137
:100F000091810E94652E3E812D81FFEF8F1A9F0AED
:100F10000E5F1F4FE5CFC9010E94652E8FEF481A63
:100F2000580A680A780A94E0A90EB11CC3CFAF81B1
:100F3000B88518968D919C9119970E94652EEF8126
:100F4000F88582859385892B59F1A12CB12C812CB0
:100F5000912C84E48C9D80018D9D100D11240051F5
:100F60001C4F8214930484F4D801ED91FC91EA0D96
:100F7000FB1D848195810E94652EBFEF8B1A9B0A11
:100F8000EEE0AE0EB11CEDCF84E48C9DF0018D9DA2
:100F9000F00D1124EA51FC4F828593850E94652E45
:100FA00084E48C9D90018D9D300D112489010A519E
:100FB0001C4FD80150968D919C9151970E94652E9F
:100FC000F801868597850E94652EC701B60198DDD8
:100FD000C701B60128960FB6F894DEBF0FBECDBF8D
:100FE000DF91CF911F910F91FF90EF90DF90CF9005
:100FF000BF90AF909F908F907F906F905F904F9039
:101000003F902F90EDCE28960FB6F894DEBF0FBE1E
:10101000CDBFDF91CF911F910F91FF90EF90DF90A7
:10102000CF90BF90AF909F908F907F906F905F9088
:101030004F903F902F90089524E4269FF001279F22
:10104000F00D1124EA51FC4F82899389049702978D
:1010500058F485E090E0938B828B8FEF9FEFDC015B
:10106000828F938FA48FB58F08952F923F924F92C6
:101070005F926F927F928F929F92AF92BF92CF9228
:10108000DF92EF92FF920F931F93CF93DF93CDB731
:10109000DEB7E0970FB6F894DEBF0FBECDBF9AA3C0
:1010A00089A31B016A012801390184E4849D800120
:1010B000859D100D112498012A513C4F7901D901C9
:1010C0004D925D926D927C921397AB01C301B20178
:1010D000B3DEF801E651FC4FD6014D915D916D9163
:1010E0007D918D01CA01408351836283738364E0E3
:1010F00070E00E94B62DF70191878087892B09F453
:1011000099C11E8E1D8E198E1A8E1B8E1C8EF8A2F2
:10111000EF8E97012C5F3F4F38A72FA32C5F3F4FD7
:101120003AA729A7EFA1F8A580819181A281B38177
:10113000298D3A8D4B8D5C8D281739074A075B073F
:101140000CF0E4C0A9A5BAA58D919C912D8D3E8D82
:10115000280F391F3A8B298BD801ED91FC91EE0FA6
:10116000FF1FA9A1BAA18D919C91E80FF91F808161
:101170009181F90191838083D80114962D913D913D
:101180004D915C9117972BA33CA34DA35EA3085FE1
:101190001F4F62E070E0C1010E94B62DE989FA8913
:1011A00093838283892B09F445C11D8A1E8A1F8A75
:1011B000188E2D893E894F89588D8BA19CA1ADA198
:1011C000BEA1281739074A075B070CF08CC0D8016D
:1011D000ED90FC90EE0CFF1CE989FA89C280D38067
:1011E000CE0CDF1C68E070E081E090E00E94B62D3C
:1011F000D6018D939C93E989FA8982819381FC01C0
:10120000EE0DFF1DC080D180C114D10409F412C1BC
:10121000D80114964D915D916D917C911797CA01FB
:10122000F6014083518362837383085F1F4F64E03C
:1012300070E00E94B62DD60115969C938E9314975C
:10124000892B09F4F7C01C8A1B8A812C912C54012C
:10125000F60180819181A281B38188169906AA0640
:10126000BB06A4F5F601E480F5802B893C89E20EEB
:10127000F31EF801DE01119680E101900D928A952E
:10128000E1F7005F1F4FA701BE016F5F7F4FA9A16C
:10129000BAA114968D919C9115979EDCF60126813A
:1012A0003781D70112968D919C911397820F931FCE
:1012B00097838683BFEF8B1A9B0AAB0ABB0A2B89E5
:1012C0003C892C5F3F4F3C8B2B8BC2CF2D893E89B5
:1012D0004F89588D2F5F3F4F4F4F5F4F2D8B3E8B68
:1012E0004F8B588F66CF298D3A8D4B8D5C8D2F5F3C
:1012F0003F4F4F4F5F4F298F3A8F4B8F5C8F2D8D14
:101300003E8D2C5F3F4F3E8F2D8F0CCF6EE070E0F7
:10131000C1010E94B62DAF8DB8A11B969C938E93F0
:101320001A97812C912CA12CB12CC12CD12C24E406
:10133000249DC001259D900D11249C0120513C4FFE
:101340003A8B298B21E030E0A214B3040CF04AC0A0
:10135000D8014D915D916D917D918D01CA01E98911
:10136000FA89E080F180E80CF91C57FD63C0D701D1
:1013700011963C932E930097A1F02FA738AB4BA763
:101380005CA76DA77EA70E94D02DF701958384836B
:101390002FA538A94BA55CA56DA57EA5892B31F499
:1013A00049C0D70115961C921E921497F7015383DA
:1013B0004283848195819783868391878087138672
:1013C000128681E090E0452B462B472B11F480E0FC
:1013D00090E0C80ED91EFFEFAF1ABF0A4EE0840E90
:1013E000911CB2CF84E4849D8001859D100D112451
:1013F0000A511C4FD8011D961C921E921C97C601C3
:1014000033E0880F991F3A95E1F70E94D02DF8013B
:10141000918B808B892B71F0C601880F991F0E94D8
:10142000D02DD8011F969C938E931E97892B11F077
:1014300080E005C0A101C301B201FEDC81E0E096BD
:101440000FB6F894DEBF0FBECDBFDF91CF911F91D5
:101450000F91FF90EF90DF90CF90BF90AF909F9053
:101460008F907F906F905F904F903F902F90089556
:101470002F923F924F925F926F927F928F929F92A4
:10148000AF92BF92CF92DF92EF92FF920F931F9392
:10149000CF93DF93CDB7DEB768970FB6F894DEBF72
:1014A0000FBECDBF9C8B8B8BDB0149015A0124E41D
:1014B000289DC001299D900D11249C012A513C4F6B
:1014C00079012D913C911197F701358B248BFC010B
:1014D000E450FC4F14964D915D916D917C9117975E
:1014E0004083518362837383FC01E050FC4F189664
:1014F0004D915D916D917C911B97408351836283E7
:101500007383FC01EC5FFB4F1C964D915D916D91D7
:101510007C911F974083518362837383FC01EC5E4F
:10152000FB4F50965C91509751964C915197529623
:101530003C91529753962C91539750834183328319
:1015400023838D010C5E1F4F852F942F18161906CB
:101550000CF068C0880F991F880F991F0E94D02D2A
:10156000D701D3969C938E93D297892B09F4BCC054
:10157000212C312C412C512C32019701225D3F4FFF
:101580003E8B2D8B2C5F3F4F388F2F8B2E5F3F4F25
:101590003A8B298BB301A2012FEF421A520A620A39
:1015A000720AED89FE8980819181A281B3814817F9
:1015B00059076A077B074CF5AF89B88DCD90DC9051
:1015C000C20CD31CF801DE01119680E101900D924E
:1015D0008A95E1F7005F1F4FA601BE016F5F7F4F45
:1015E000EB89FC8984819581F7DAA989BA898D9183
:1015F0009C911197F60122813381820F931F8D9365
:101600009C93F4E02F0E311CC5CFD701D4968D9159
:101610009C91D5970E94D02DF70197AB86AB892B73
:1016200009F462C0F80180819181A281B38124E430
:10163000289DF001299DF00D1124EA51FC4FAC01C9
:10164000BD014D7F21E030E0452B462B472B11F0AB
:1016500020E030E033A322A324E4289DF001299D5B
:10166000F00D1124EA51FC4F0197A109B10921E0C5
:1016700030E00297A105B10510F020E030E035A37D
:1016800024A384E4889DF001899DF00D1124CF01ED
:10169000845F9B4FD80114964D915D916D917C9123
:1016A0001797DC014D935D936D937C931397EA51EB
:1016B000FC4F868D978DA0A1B1A1B7FF10C0B0954A
:1016C000A095909581959F4FAF4FBF4F82AF93AF3D
:1016D000A4AFB5AF168E178E10A211A20AC012AE1B
:1016E00013AE14AE15AE05C0C501B40109DA81E030
:1016F00001C080E068960FB6F894DEBF0FBECDBF84
:10170000DF91CF911F910F91FF90EF90DF90CF90DD
:10171000BF90AF909F908F907F906F905F904F9011
:101720003F902F900895CF92DF92EF92FF92CF9348
:10173000DF9310926E0424E4269FF001279FF00DA2
:101740001124EA51FC4F15A614A620E030E0C12C6C
:10175000D12CDF011A96C1E0D0E0C416D506D4F42E
:10176000ED91FC911197E20FF31FE280F3801E14BC
:101770001F0454F4E480F580F782E682F186E08667
:1017800013861286D183C083EFEFCE1ADE0A225F62
:101790003F4FE3CF24E4269FF001279FF00D112453
:1017A000EA51FC4F13A612A611AE10AEDF01DE9671
:1017B0001D921D921D921C92139782E090E0938BD4
:1017C000828BDF91CF91FF90EF90DF90CF900895C3
:1017D00024E4269FF001279FF00D1124EA51FC4FCD
:1017E000138A128A29CB24E4269FF001279FF00D4B
:1017F0001124EA51FC4F8289938981309105C8F008
:101800008530910518F0059769F008958FEF9FEFE7
:10181000DC01828F938FA48FB58F85E090E0938B4E
:10182000828B08958FEF9FEFDC01828F938FA48FBF
:10183000B58F089524E4249FF001259FF00D112415
:10184000EA51FC4F2EE0AC01249FC001259F900D72
:1018500011240284F385E02DE80FF91F81E08093C5
:101860006E04828593859187808740855185268186
:10187000378181E090E04217530711F080E090E05B
:101880009183808308952F923F924F925F926F923F
:101890007F928F929F92AF92BF92CF92DF92EF9200
:1018A000FF920F931F93CF93DF93CDB7DEB7C2554F
:1018B000D1090FB6F894DEBF0FBECDBF21969FAF02
:1018C0008EAF21974BA75CA76DA77EA74801590152
:1018D00084E4889D8001899D100D1124F801EA514E
:1018E000FC4F2285338527963FAF2EAF27978289FD
:1018F0009389029709F060C186A597A5A0A9B1A90F
:10190000892B8A2B8B2B29F484E090E0938B828B9C
:1019100053C18489958921964EAD5FAD21974817B3
:10192000590709F049C186A997A99AAB89AB1EAEA0
:101930001DAE19AE1AAE1BAE1CAE8F01DF019E9616
:101940002996BFAFAEAF2997F2962B96FFAFEEAFB9
:101950002B979801285C3F4F2D963FAF2EAF2D97C8
:10196000A8014A5D5F4F2F965FAF4EAF2F97C8011A
:10197000829661969FAF8EAF61971A976396BFAFBD
:10198000AEAF63972996EEADFFAD29978081918127
:10199000A281B38129AD3AAD4BAD5CAD28173907B3
:1019A0004A075B070CF0E7C02B96EEADFFAD2B9717
:1019B000808191812DAD3EAD280F391F3EAB2DABFF
:1019C000D90112960D90BC91A02D2396BFAFAEAF5A
:1019D0002397B695A795B695A7952596BFAFAEAFB9
:1019E00025972D96EEADFFAD2D9780819181892BA6
:1019F00009F496C02F96AEADBFAD2F97CD90DD9078
:101A0000ED90FC9029A83AA8F9010190F081E02D11
:101A1000F8ABEFA718AE1FAA8FA998AD2596AEAD6B
:101A2000BFAD25978A179B070CF07AC06196AEADC3
:101A3000BFAD61978D919C91892B69F1EFA5F8A9B4
:101A40004080518062807380A7019601C301B2017A
:101A50000E947D2B87FD0BC0A7019601D1016D91DE
:101A60007D918D919C910E942E2A87FD8CC0A701AB
:101A70009601C301B2010E947D2B181664F4A701E0
:101A80009601F10160817181828193810E942E2AE9
:101A9000882309F478C06396AEADBFAD63978D918E
:101AA0009C91892B69F1EFA5F8A940805180628053
:101AB0007380A7019601C301B2010E942E2A87FFFD
:101AC0000BC0A7019601D1016D917D918D919C91E3
:101AD0000E947D2B87FF57C0A7019601C301B20169
:101AE0000E942E2A81110CC0A7019601F10160818C
:101AF0007181828193810E947D2B18160CF443C062
:101B00002FA938AD2F5F3F4F38AF2FAB34E0230EF6
:101B1000311C4FA558A94C5F5F4F58AB4FA77CCFE6
:101B2000EDA9FEA96081718123964EAD5FAD23972B
:101B300089A99AA90E94FD2E25968EAD9FAD259765
:101B4000880F991F880F991F29A93AA9280F391FB3
:101B50003AAB29AB89AD9AADABADBCAD0196A11D39
:101B6000B11D89AF9AAFABAFBCAFADADBEAD1496F2
:101B7000BEAFADAF07CF81E090E0D801D9969C937E
:101B80008E93D89719C084E4889DF001899DF00D4B
:101B90001124EA51FC4F868D978DA0A1B1A1892B0C
:101BA0008A2B8B2B09F064C284E090E0938B828BAC
:101BB00086AD97AD93A782A784E4889DF001899DA7
:101BC000F00D1124EA51FC4F8289938982309105EE
:101BD00071F482AD93ADA4ADB5AD181619061A0611
:101BE0001B060CF04CC2CC24C394D12C05C0049726
:101BF00009F045C2C12CD12C8EE02196EEADFFAD8F
:101C000021978E9F70018F9FF00C112427962EAD87
:101C10003FAD2797E20EF31ED70112964D915C91CE
:101C200013974115510509F42AC216968D919C917E
:101C300017979AA789A7FE01319684E1DF011D92CB
:101C40008A95E9F7898A9A8AAB8ABC8AC114D10439
:101C500009F457C084E4889DF001899DF00D11249A
:101C6000EA51FC4FDF01DE964D905D906D907C90C7
:101C700082AD93ADA4ADB5AD481659066A067B0694
:101C800009F03FC0F701648175810084F185E02D82
:101C900084819581A681B7819C018D8B9E8BAF8BB2
:101CA000B88F285F3F4F3E8B2D8BD70118968D91B3
:101CB0009C911997280F391F19963C932E931897CA
:101CC00018968D919C911997460F571F841B950B61
:101CD00097FD06C0860F971F19969C938E931897B1
:101CE00084E4889DF001899DF00D1124EC5DFB4F8B
:101CF000B1E04B1A5108610871084082518262823A
:101D000073829E012B5E3F4FAE01475D5F4F64E1E2
:101D100070E0C7010E941705082F10E0011511059A
:101D200009F091C18CE090E0A0E0B0E08D839E834B
:101D3000AF83B8879E01235E3F4FAE01475D5F4F83
:101D400064E070E0C7010E941705082F10E001153C
:101D5000110509F078C180E190E0A0E0B0E08D834A
:101D60009E83AF83B8874D8D5E8DBE01655D7F4FCD
:101D70008F8D98A10E94FD2E8BA19CA1009761F0F0
:101D80006D8D7E8DEBE2F0E0EC0FFD1F6E0F7F1F7F
:101D900049A15AA10E94FD2E1DA21EA21FA218A693
:101DA00021962EAD3FAD2197220F331F38AF2FABB9
:101DB00024E4289DC001299D900D11248A519C4F37
:101DC000AC014C5F5F4F5AAF49AFDC011896BEAF14
:101DD000ADAF2DA13EA14FA158A529AB3AAB4BAB5E
:101DE0005CABE9ADFAAD80819181A281B381281706
:101DF00039074A075B070CF0CFC0ADADBEADED9122
:101E0000FC9189A99AA9880F991F880F991FE80F3B
:101E1000F91FA081B1818C91882309F4AFC0833070
:101E200009F4ACC00280F381E02D2FA938ADE20F98
:101E3000F31F4081518158AB4FA7452B09F49EC039
:101E400089859A85AB85BC850196A11DB11D8987C1
:101E50009A87AB87BC879E01235E3F4FAE01475DEB
:101E60005F4F64E070E0C7010E94170590E00097A3
:101E700009F0E8C08D819E81AF81B8850496A11DCF
:101E8000B11D8D839E83AF83B8874D8D5E8DBE015E
:101E90006B5D7F4F8F8D98A10E94FD2E8BA19CA121
:101EA000009761F06D8D7E8DA5E2B0E0AC0FBD1F97
:101EB0006A0F7B1F49A15AA10E94FD2E1EAA1DAACE
:101EC000412C512C3201EFA5F8A980819181A2818A
:101ED000B381481659066A067B060CF04FC0EFA581
:101EE000F8A9248035802DA93EA9220E331ED101E8
:101EF00012966D917C9113979E01235E3F4FAE0128
:101F0000475D5F4FC7010E94170590E0009709F0F9
:101F100099C0F10182819381092E000CAA0BBB0BA1
:101F20004D815E816F817885840F951FA61FB71F35
:101F30008D839E83AF83B887608171814D8D5E8D67
:101F40008F8D98A10E94FD2E8BA19CA1009759F026
:101F5000D1016D917C912D8D3E8D620F731F49A132
:101F60005AA10E94FD2EBFEF4B1A5B0A6B0A7B0A37
:101F7000EDA9FEA93496FEABEDABA5CF49A85AA8B2
:101F80006BA87CA8FFEF4F1A5F0A6F0A7F0A4DA269
:101F90005EA26FA278A61DCF89859A85AB85BC8588
:101FA000892B8A2B8B2B09F44EC08AE190E0A0E0AC
:101FB000B0E089839A83AB83BC8321962EAD3FAD7D
:101FC0002197C901330FAA0BBB0B8D879E87AF8763
:101FD000B88B4D895E89BE016F5F7F4F8F89988D69
:101FE0000E94FD2E8B8D9C8D009761F06D897E89FE
:101FF00041E050E04C0F5D1F640F751F498D5A8DF5
:102000000E94FD2E89A59AA5D70117969C938E93C1
:10201000169711961C921E92CD2889F184E4889D12
:10202000F001899DF00D1124EC5DFB4F80819181C1
:10203000A281B3810196A11DB11D80839183A283EA
:10204000B3831DC08C01CD28D1F4012BC1F084E4F1
:10205000889DF001899DF00D1124EA51FC4F81E02B
:1020600090E095A784A785E090E0938B828B07C0D2
:1020700083E090E0938B828B81E090E09BCDCE5A01
:10208000DF4F0FB6F894DEBF0FBECDBFDF91CF910B
:102090001F910F91FF90EF90DF90CF90BF90AF9086
:1020A0009F908F907F906F905F904F903F902F9078
:1020B0000895CF92DF92EF92FF920F931F936B01DF
:1020C0007C0184E48C9DF0018D9DF00D1124EA517A
:1020D000FC4F82899389009709F450C00197B9F4A5
:1020E00082A593A59C012F5F3F4F33A722A7092EFE
:1020F000000CAA0BBB0B028D138D248D358D801720
:102100009107A207B307D1F5C701B6010CDB84E440
:102110008C9DF0018D9DF00D1124EA51FC4F8289B8
:102120009389039759F582A593A59C012F5F3F4F93
:1021300033A722A7092E000CAA0BBB0B468D578D87
:1021400060A171A184179507A607B707BCF086ADFB
:1021500097AD93A782A784E090E0938B828B82ADAA
:1021600093ADA4ADB5AD181619061A061B0634F4C6
:10217000EE5BFF4F81E090E0918380831F910F9190
:10218000FF90EF90DF90CF90089524E4269FF00118
:10219000279FF00D1124EA51FC4F828993890497FF
:1021A000B1F482A593A5019693A782A7092E000CEE
:1021B000AA0BBB0B46895789608D718D84179507D3
:1021C000A607B70721F485E090E0938B828B0895F2
:1021D0002F923F924F925F926F927F928F929F9237
:1021E000AF92BF92CF92DF92EF92FF920F931F9325
:1021F000CF93DF93CDB7DEB72E970FB6F894DEBF3F
:102200000FBECDBF49835A836B837C834901442E23
:10221000552E24E4249DF001259DF00D1124EA5152
:10222000FC4F228833889101245031091586148689
:102230002230310508F0DDC0DC0111961C921E929F
:1022400013961C921E921297A12CB12C60E070E0A4
:102250009F01265F3F4F38872F837F013CE0E30ECD
:10226000F11CDF015096BA87A9879F01225F3F4F7B
:102270003C872B87681579050CF06FC0EF81F885D6
:10228000A081B1819D012A0D3B1D3E872D87D9017B
:102290002D913C911197232B09F059C018960D915F
:1022A0001C9119971296ED91FC911397FE83ED8383
:1022B00016962D913C911797D7014D915C91DA01BB
:1022C000E3E0AA0FBB1FEA95E1F7E985FA85C08034
:1022D000D180FD01EC0DFD1D440F551FAB85BC8564
:1022E000CD90DC904C0D5D1DDA016D937C93D70190
:1022F0004D915C9111974F5F5F4F4D935C931383AA
:102300000283AD85BE851B963C932E931A970217C8
:10231000130748F4201B310B31832083158214826C
:102320001782168214C0AD85BE851496CD90DC90C0
:1023300015974D815E814C0D5D1D401B510B5183E6
:1023400040832C193D0935832483D782C6826F5F71
:102350007F4FBEE0AB0EB11C8DCF24E4249D8001E5
:10236000259D100D11240A511C4FF8012485358537
:10237000DC0111963C932E934089518913965C930E
:102380004E9312974685578515965C934E931497F6
:10239000232BA1F5B5E02B16310481F510926E04C4
:1023A000828D938DA48DB58DAE014F5F5F4F64E03C
:1023B00070E08F3F9F4FAF4FBF4F59F480E290E0E6
:1023C0000E94162169817A818B819C81A40100DAA7
:1023D00015C08FE190E00E941621D8019B961C92B7
:1023E0001E929A9781E090E053969C938E93529719
:1023F00005C0FC0111821082138212822E960FB644
:10240000F894DEBF0FBECDBFDF91CF911F910F912A
:10241000FF90EF90DF90CF90BF90AF909F908F9004
:102420007F906F905F904F903F902F900895EF9224
:10243000FF920F931F93CF93DF937C018B01EA01EF
:102440000E949921811121C08091A8029091A90236
:10245000049711F183E090E09093A9028093A80281
:102460001BC098819111F0CF28ED38EB45E050E08A
:1024700060E070E0CB010E942324AE01B801C701E7
:102480000E943124C8010E94FC2380916F04909126
:102490007004892B31F3D8CFDF91CF911F910F9129
:1024A000FF90EF900895CF93DF932091A802309191
:1024B000A9022430310541F0EB010E943124CE0104
:1024C000DF91CF910C94FC23DF91CF9108950C9470
:1024D00045280C943A280C9428280C940C240C942D
:1024E000CC27089560E070E080E090E00C947421C7
:1024F0000895AF92BF92CF92DF92EF92FF920F9327
:102500001F93CF93DF931F921F92CDB7DEB75C016D
:1025100069017A018B0180E090E0C114D104E104EB
:10252000F104F1F0C114D10421E0E206F10410F449
:10253000A60102C04FEF5FEF9E012F5F3F4FB80132
:10254000C5010E94E6288F3F2FEF920749F02981AD
:102550003A81C21AD30AE108F108020F131FDDCF36
:102560000F900F90DF91CF911F910F91FF90EF90FF
:10257000DF90CF90BF90AF9008954F925F926F928F
:102580007F928F929F92AF92BF92CF92DF92EF9203
:10259000FF920F931F93CF93DF93CDB7DEB72897AA
:1025A0000FB6F894DEBF0FBECDBF8C0120E030E047
:1025B00040E85FE3FB0160817181828193810E9429
:1025C0002E2A811117C11AD30E94CB2A6B017C01DC
:1025D00060917104709172048091730490917404FD
:1025E0000E94CD2A2091AA023091AB024091AC0208
:1025F0005091AD020E94CA299B01AC01C701B601EE
:102600000E942E2A87FDDFCFF9D260937104709368
:1026100072048093730490937404409179045091F0
:102620007A04052E000C660B770B8091750490914F
:102630007604A0917704B0917804841B950BA60BC7
:10264000B70B8093750490937604A0937704B093AE
:102650007804E9E7F4E0828193818193919384E0A7
:10266000EB38F807C1F78FE095D390938C048093F3
:102670008B046C01990FEE08FF084091750450918E
:1026800076046091770470917804CB01BA016C0DE7
:102690007D1D8E1D9F1D609375047093760480933D
:1026A0007704909378042AE030E040E050E00E9404
:1026B0007E2DCA01B9010E94CD2A20E030E040EA17
:1026C0005BE30E94812B6B017C0120E030E040EC59
:1026D00050E40E94E42B4B015C0120E030E040EA32
:1026E00050E4C701B6010E94E42B2B013C0120E01D
:1026F00030E040E850E4C701B6010E94E42B698352
:102700007A838B839C8320E030E040E450E4C7016F
:10271000B6010E94E42B6D837E838F8398872EE819
:1027200036E040EA5FE3C501B4010E94812B4B0112
:102730005C0122E03BE243E851E4C301B2010E94A4
:10274000812B9B01AC01C501B4010E94C9294B0139
:102750005C012CE437EF49EA52E469817A818B818C
:102760009C810E94812B9B01AC01C501B4010E9498
:10277000CA294B015C0123EC35E741E653E46D8146
:102780007E818F8198850E94812B9B01AC01C501C0
:10279000B4010E94C9294B015C01A7019601C70140
:1027A000B6010E94812B26E636E645EA53E40E94F4
:1027B000812B9B01AC01C501B4010E94CA294B01C8
:1027C0005C012DEC3CE048E853E4C701B6010E94EF
:1027D000812B9B01AC01C501B4010E94C92924EAE7
:1027E00030E741EF52E40E94CA29F8016083718307
:1027F0008283938328960FB6F894DEBF0FBECDBFB9
:10280000DF91CF911F910F91FF90EF90DF90CF90CC
:10281000BF90AF909F908F907F906F905F904F9000
:1028200008950F931F93CF93DF938B0120E030E047
:10283000A901FB0160817181828193810E942E2A0E
:10284000811133C060E08FE0E7D3C9E7D4E08FE0C7
:10285000A1D289939993092E000CAA0BBB0B40912E
:102860007504509176046091770470917804840F18
:10287000951FA61FB71F8093750490937604A093AD
:102880007704B09378046CE370E080E090E0E7D1E7
:10289000F4E0CD38DF07D9F680E090E0A0E8BFE3B0
:1028A000F80180839183A283B383DF91CF911F913D
:1028B0000F910895089508951F920F920FB60F92E9
:1028C00011240BB60F922F933F934F935F936F9307
:1028D0007F938F939F93AF93BF93EF93FF93E09179
:1028E000B202F091B3021995FF91EF91BF91AF91B0
:1028F0009F918F917F916F915F914F913F912F9118
:102900000F900BBE0F900FBE0F901F9018951F9247
:102910000F920FB60F9211240BB60F922F933F9385
:102920004F935F936F937F938F939F93AF93BF93D7
:10293000EF93FF93E091B402F091B5021995FF91E6
:10294000EF91BF91AF919F918F917F916F915F9127
:102950004F913F912F910F900BBE0F900FBE0F9094
:102960001F9018951F920F920FB60F9211240BB65D
:102970000F922F933F934F935F936F937F938F9318
:102980009F93AF93BF93EF93FF93E091B602F091C3
:10299000B7021995FF91EF91BF91AF919F918F91E0
:1029A0007F916F915F914F913F912F910F900BBE4F
:1029B0000F900FBE0F901F9018951F920F920FB699
:1029C0000F9211240BB60F922F933F934F935F9367
:1029D0006F937F938F939F93AF93BF93EF93FF93E7
:1029E000E091B802F091B9021995FF91EF91BF9172
:1029F000AF919F918F917F916F915F914F913F9197
:102A00002F910F900BBE0F900FBE0F901F90189537
:102A10001F920F920FB60F9211240BB60F922F93A5
:102A20003F934F935F936F937F938F939F93AF9356
:102A3000BF93EF93FF93E091AE02F091AF0219952F
:102A4000FF91EF91BF91AF919F918F917F916F9186
:102A50005F914F913F912F910F900BBE0F900FBE42
:102A60000F901F9018951F920F920FB60F9211247E
:102A70000BB60F922F933F934F935F936F937F9378
:102A80008F939F93AF93BF93EF93FF93E091B00227
:102A9000F091B1021995FF91EF91BF91AF919F9184
:102AA0008F917F916F915F914F913F912F910F90F7
:102AB0000BBE0F900FBE0F901F9018951F920F9294
:102AC0000FB60F9211240BB60F922F933F934F9393
:102AD0005F936F937F938F939F93AF93BF93EF9386
:102AE000FF93E091BA02F091BB021995FF91EF912B
:102AF000BF91AF919F918F917F916F915F914F9116
:102B00003F912F910F900BBE0F900FBE0F901F9013
:102B100018951F920F920FB60F9211240BB60F92B9
:102B20002F933F934F935F936F937F938F939F93D5
:102B3000AF93BF93EF93FF93E091BC02F091BD027E
:102B40001995FF91EF91BF91AF919F918F917F91D7
:102B50006F915F914F913F912F910F900BBE0F900E
:102B60000FBE0F901F9018951F920F920FB60F92E5
:102B700011242F933F938F939F93AF93BF93809193
:102B80008E0490918F04A0919004B09191043091A3
:102B90008D0423E0230F2D3720F40196A11DB11DD4
:102BA00005C026E8230F0296A11DB11D20938D04B8
:102BB00080938E0490938F04A0939004B09391041B
:102BC0008091920490919304A0919404B091950403
:102BD0000196A11DB11D8093920490939304A0933C
:102BE0009404B0939504BF91AF919F918F913F91C1
:102BF0002F910F900FBE0F901F9018952FB7F8943C
:102C000060918E0470918F04809190049091910452
:102C10002FBF08953FB7F894809192049091930448
:102C2000A0919404B091950426B5A89B05C02F3FB0
:102C300019F00196A11DB11D3FBFBA2FA92F982FE2
:102C40008827820F911DA11DB11DBC01CD0142E05D
:102C5000660F771F881F991F4A95D1F708958F92A5
:102C60009F92AF92BF92CF92DF92EF92FF926B0151
:102C70007C01D0DF4B015C01C114D104E104F104FB
:102C8000F1F018DEC7DFDC01CB0188199909AA0928
:102C9000BB09883E9340A105B10570F321E0C21A3B
:102CA000D108E108F10888EE880E83E0981EA11C87
:102CB000B11CC114D104E104F10421F7DDCFFF9070
:102CC000EF90DF90CF90BF90AF909F908F9008953E
:102CD000789484B5826084BD84B5816084BD85B5F7
:102CE000826085BD85B5816085BDEEE6F0E08081BE
:102CF00081608083E1E8F0E01082808182608083DF
:102D0000808181608083E0E8F0E080818160808361
:102D1000E1EBF0E0808184608083E0EBF0E0808193
:102D200081608083E1E9F0E080818260808380813E
:102D300081608083E0E9F0E0808181608083E1EA66
:102D4000F0E0808182608083808181608083E0EA1E
:102D5000F0E0808181608083E1E2F1E08081826047
:102D60008083808181608083E0E2F1E08081816006
:102D70008083EAE7F0E080818460808380818260E4
:102D800080838081816080838081806880831092CD
:102D9000C1000895863308F0865390917B00282F58
:102DA0002870977F922B90937B0087702091BE02B2
:102DB00090E4299F90011124822B80937C008091C4
:102DC0007A00806480937A0080917A0086FDFCCF3F
:102DD000809178002091790090E0922B08951F93C4
:102DE000CF93DF93182FEB0161E016D1209711F4F8
:102DF00060E004C0CF3FD10531F461E0812FDF9165
:102E0000CF911F9145C1E12FF0E0E253FE4FE491D5
:102E10004E2F50E0FA013197E231F10508F09DC0E4
:102E20008827EE58FF4F8F4F0C949A2D84B58068F9
:102E300084BDC7BD97C084B5806284BDC8BD92C043
:102E400080918000806880938000D0938900C09337
:102E5000880088C080918000806280938000D09339
:102E60008B00C0938A007EC0809180008860809330
:102E70008000D0938D00C0938C0074C08091B0000E
:102E800080688093B000C093B3006CC08091B000A4
:102E900080628093B000C093B40064C080919000C1
:102EA000806880939000D0939900C09398005AC096
:102EB00080919000806280939000D0939B00C0939B
:102EC0009A0050C080919000886080939000D093C9
:102ED0009D00C0939C0046C08091A00080688093B4
:102EE000A0008091A0008F7B8093A000D093A900C8
:102EF000C093A80037C08091A00080628093A0009A
:102F0000D093AB00C093AA002DC08091A000886030
:102F10008093A000D093AD00C093AC0023C08091FB
:102F20002001806880932001D0932901C09328015B
:102F300019C080912001806280932001D0932B01E1
:102F4000C0932A010FC080912001886080932001E6
:102F5000D0932D01C0932C0105C0C038D1050CF0D1
:102F60004CCF46CFDF91CF911F91089590E0FC01A7
:102F70003197E231F10508F04EC08827EC57FF4F3A
:102F80008F4F0C949A2D809180008F7703C0809191
:102F900080008F7D80938000089580918000877FDE
:102FA000F9CF84B58F7702C084B58F7D84BD089535
:102FB0008091B0008F7703C08091B0008F7D8093A7
:102FC000B0000895809190008F7707C080919000A5
:102FD0008F7D03C080919000877F8093900008953B
:102FE0008091A0008F7707C08091A0008F7D03C0E3
:102FF0008091A000877F8093A00008958091200198
:103000008F7707C0809120018F7D03C080912001C0
:10301000877F809320010895CF93DF9390E0FC0198
:10302000EC5EFD4F2491FC01E65AFD4F849188230C
:1030300061F190E0880F991FFC01E654FD4FC591A6
:10304000D491FC01E056FD4FA591B491611109C0E6
:103050009FB7F8948881209582238883EC912E2352
:103060000BC0623061F49FB7F8943881822F80954D
:1030700083238883EC912E2B2C939FBF06C08FB7A0
:10308000F894E8812E2B28838FBFDF91CF9108958C
:103090001F93CF93DF93282F30E0F901E253FE4FC7
:1030A0008491F901EC5EFD4FD491F901E65AFD4F90
:1030B000C491CC23C1F0162F811158DFEC2FF0E022
:1030C000EE0FFF1FE056FD4FA591B4918FB7F89416
:1030D000111105C09C91ED2FE095E92302C0EC9100
:1030E000ED2BEC938FBFDF91CF911F910895FC01E1
:1030F000918D228D892F90E0805C9F4F821B9109DA
:103100008F7399270895FC01918D828D981731F066
:10311000828DE80FF11D858D90E008958FEF9FEF70
:103120000895FC01918D828D981761F0828DDF01E9
:10313000A80FB11D5D968C91928D9F5F9F73928FAA
:1031400090E008958FEF9FEF0895FC01848DDF01DB
:10315000A80FB11DA35ABF4F2C91848D90E001960A
:103160008F739927848FA689B7892C93A089B189F9
:103170008C9180648C93938D848D981306C0028803
:10318000F389E02D80818F7D80830895CF93DF9335
:10319000EC01888D8823C1F0EA89FB89808185FD57
:1031A00005C0A889B9898C9186FD0EC00FB607FCB1
:1031B000F5CF808185FFF2CFA889B9898C9185FFF1
:1031C000EDCFCE01C2DFE8CFDF91CF910895EF922E
:1031D000FF920F931F93CF93DF93EC0181E0888FD1
:1031E0009B8D8C8D981305C0E889F989808185FDB8
:1031F00023C0F62E0B8D10E00F5F1F4F0F731127AA
:10320000E02E8C8DE8120BC00FB607FCFACFE889D0
:10321000F989808185FFF5CFCE0197DFF2CF8B8DC5
:10322000FE01E80FF11DE35AFF4FF0820B8FEA8990
:10323000FB898081806207C0EE89FF896083E8890D
:10324000F98980818064808381E090E0DF91CF9173
:103250001F910F91FF90EF900895CF92DF92EF9220
:10326000FF921F93CF93DF93EC016A017B01122F32
:10327000E889F98982E080834115514E6105710525
:10328000B1F060E079E08DE390E0A70196010E9443
:103290005C2DDA01C9010197A109B109B695A7957D
:1032A00097958795AC01411580E15807A8F0E8890A
:1032B000F989108260E874E88EE190E0A701960138
:1032C0000E945C2DBA01A90141505109610971099F
:1032D0007695679557954795EC85FD855083EE85E6
:1032E000FF854083188EEC89FD891083EA89FB896C
:1032F000808180618083EA89FB8980818860808306
:10330000EA89FB89808180688083EA89FB898081E2
:103310008F7D8083DF91CF911F91FF90EF90DF90A1
:10332000CF9008951F920F920FB60F9211240BB6F3
:103330000F922F938F939F93EF93FF93E091A604A7
:10334000F091A7048081E091AC04F091AD0482FD7E
:1033500012C090818091AF048F5F8F732091B00471
:10336000821751F0E091AF04F0E0EA56FB4F958FE1
:103370008093AF0401C08081FF91EF919F918F9165
:103380002F910F900BBE0F900FBE0F901F901895AE
:103390001F920F920FB60F9211240BB60F922F931C
:1033A0003F934F935F936F937F938F939F93AF93CD
:1033B000BF93EF93FF9386E994E0C7DEFF91EF910F
:1033C000BF91AF919F918F917F916F915F914F913D
:1033D0003F912F910F900BBE0F900FBE0F901F903B
:1033E0001895E6E9F4E01382128288EE93E0A0E0FB
:1033F000B0E084839583A683B78387E693E09183C7
:10340000808385EC90E09587848784EC90E09787B3
:10341000868780EC90E0918B808B81EC90E0938BA1
:10342000828B82EC90E0958B848B86EC90E0978B7E
:10343000868B118E128E138E148E08951F920F920A
:103440000FB60F9211240BB60F922F938F939F9369
:10345000EF93FF93E0914305F09144058081E09163
:103460004905F0914A0582FD12C0908180914C057A
:103470008F5F8F7320914D05821751F0E0914C05BD
:10348000F0E0ED5CFA4F958F80934C0501C0808190
:10349000FF91EF919F918F912F910F900BBE0F9005
:1034A0000FBE0F901F9018951F920F920FB60F929C
:1034B00011240BB60F922F933F934F935F936F930B
:1034C0007F938F939F93AF93BF93EF93FF9383E388
:1034D00095E03BDEFF91EF91BF91AF919F918F916E
:1034E0007F916F915F914F913F912F910F900BBE04
:1034F0000F900FBE0F901F901895E3E3F5E0138235
:10350000128288EE93E0A0E0B0E084839583A683E6
:10351000B78387E693E0918380838DEC90E0958775
:1035200084878CEC90E09787868788EC90E0918B7D
:10353000808B89EC90E0938B828B8AEC90E0958B6A
:10354000848B8EEC90E0978B868B118E128E138E6F
:10355000148E08951F920F920FB60F9211240BB67E
:103560000F922F938F939F93EF93FF93E091E0053A
:10357000F091E1058081E091E605F091E70582FD9B
:1035800012C090818091E9058F5F8F732091EA05C9
:10359000821751F0E091E905F0E0E053FA4F958F82
:1035A0008093E90501C08081FF91EF919F918F91F8
:1035B0002F910F900BBE0F900FBE0F901F9018957C
:1035C0001F920F920FB60F9211240BB60F922F93EA
:1035D0003F934F935F936F937F938F939F93AF939B
:1035E000BF93EF93FF9380ED95E0AFDDFF91EF91F7
:1035F000BF91AF919F918F917F916F915F914F910B
:103600003F912F910F900BBE0F900FBE0F901F9008
:103610001895E0EDF5E01382128288EE93E0A0E0C9
:10362000B0E084839583A683B78387E693E0918394
:10363000808385ED90E09587848784ED90E097877F
:10364000868780ED90E0918B808B81ED90E0938B6D
:10365000828B82ED90E0958B848B86ED90E0978B4A
:10366000868B118E128E138E148E08951F920F92D8
:103670000FB60F9211240BB60F922F938F939F9337
:10368000EF93FF93E0917D06F0917E068081E091BB
:103690008306F091840682FD12C090818091860697
:1036A0008F5F8F7320918706821751F0E091860615
:1036B000F0E0E359F94F958F8093860601C0808131
:1036C000FF91EF919F918F912F910F900BBE0F90D3
:1036D0000FBE0F901F9018951F920F920FB60F926A
:1036E00011240BB60F922F933F934F935F936F93D9
:1036F0007F938F939F93AF93BF93EF93FF938DE649
:1037000096E023DDFF91EF91BF91AF919F918F9153
:103710007F916F915F914F913F912F910F900BBED1
:103720000F900FBE0F901F901895EDE6F6E01382F4
:10373000128288EE93E0A0E0B0E084839583A683B4
:10374000B78387E693E09183808385E391E0958753
:10375000848784E391E09787868780E391E0918B6B
:10376000808B81E391E0938B828B82E391E0958B58
:10377000848B86E391E0978B868B118E128E138E4D
:10378000148E08958F929F92AF92BF92CF92DF9244
:10379000EF92FF920F931F93CF93DF937C018B01E6
:1037A0006C0182E0C80ED11C4701E5E08E0E911C31
:1037B000C0E0D0E0F60161916F014AE050E0C8013D
:1037C000C6D05C016EE2C80167D08A0D9B1DC80F90
:1037D000D91FC814D90471F74AE050E0F701658198
:1037E000C801B5D08C0F9D1FDF91CF911F910F9114
:1037F000FF90EF90DF90CF90BF90AF909F908F9011
:103800000895EAE0F7E087E793E0918380831282EE
:103810001382148215820895CF92DF92EF92FF9265
:103820000F931F93CF93DF936C017A018B01C0E05C
:10383000D0E0CE15DF0589F0D8016D918D01D6015C
:10384000ED91FC910190F081E02DC6011995892B35
:1038500011F47E0102C02196ECCFC701DF91CF9118
:103860001F910F91FF90EF90DF90CF900895611519
:10387000710579F0FB0101900020E9F73197AF0164
:10388000461B570BDC01ED91FC910280F381E02D8A
:10389000199480E090E00895DC01ED91FC91019095
:1038A000F081E02D19944F925F926F927F92EF9288
:1038B000FF920F931F93CF93DF93CDB7DEB7A197FE
:1038C0000FB6F894DEBF0FBECDBF7C01FA01CB016D
:1038D00019A2223008F42AE08E010F5D1F4F422EFC
:1038E000512C612C712CBF01A30192010E945C2D0F
:1038F000F901CA01015011096A3014F4605D01C078
:10390000695CD8016C93232B242B252B61F7B8011C
:10391000C701ADDFA1960FB6F894DEBF0FBECDBFD5
:10392000DF91CF911F910F91FF90EF907F906F905B
:103930005F904F9008952115310541F4DC01ED9120
:10394000FC910190F081E02D642F1994ACCF9A0185
:10395000462F50E060E070E0EECF8230A9F028F40E
:10396000882349F0813051F00895843021F1E8F046
:10397000853039F1089510926E00089580916F009E
:103980008D7F80936F000895809170008D7F80936C
:10399000700081E08093B0008091B100887F8460E6
:1039A0008093B1001092B3000895809171008D7FD3
:1039B000809371000895809172008D7F80937200D2
:1039C0000895809173008D7F809373000895CF9345
:1039D000C82F8091BF028C1307C0E4EDF2E0E491A0
:1039E0008FEF8093BF0201C0EFEF8E2FB6DF60E054
:1039F0008C2FCF914DCB1F920F920FB60F921124A7
:103A00000BB60F922F933F934F935F936F937F93D8
:103A10008F939F93AF93BF93EF93FF93809113077F
:103A200090911407A0911507B0911607892B8A2B46
:103A30008B2B51F180911007E0911107F091120743
:103A40009081892780838091130790911407A0911A
:103A50001507B0911607181619061A061B06BCF4AE
:103A60008091130790911407A0911507B091160744
:103A70000197A109B1098093130790931407A093AC
:103A80001507B093160703C08091BF02A0DFFF9116
:103A9000EF91BF91AF919F918F917F916F915F91C6
:103AA0004F913F912F910F900BBE0F900FBE0F9033
:103AB0001F90189540E052EC61E070E080E090E0EB
:103AC00000C08130910571F01CF4892B39F0089504
:103AD0008230910559F0039769F0089526E086E950
:103AE00094E00BC026E083E395E007C026E080ED7C
:103AF00095E003C026E08DE696E0AFCB1F920F92D3
:103B00000FB60F9211240BB60F922F933F934F9342
:103B10005F936F937F938F939F93AF93BF93EF9335
:103B2000FF9386E997EE90932501809324010E94EC
:103B30002029FF91EF91BF91AF919F918F917F913C
:103B40006F915F914F913F912F910F900BBE0F900E
:103B50000FBE0F901F90189586E997EE9093250160
:103B600080932401A3E7B0E08C918E7F8C93E0E2F8
:103B7000F1E080818C7F8083E1E2F1E08081877ECB
:103B8000808380818460808380818C7F80838C911E
:103B900081608C93089581E008956F927F928F9257
:103BA0009F92AF92BF92CF92DF92EF92FF920F93CC
:103BB0001F93CF93DF935C017B014A0101E010E08A
:103BC0000E151F0564F568018FEFC81AD80AE801C1
:103BD000CC0FDD1FC80DD91D688079806114710478
:103BE000E1F069E773E0C3010E940D2F892B19F4FE
:103BF0001982188212C06CE773E0C3010E940D2F76
:103C0000892B59F4CE14DF0441F06801E2E0CE0EB6
:103C1000D11C198218821B821A828601D1CF81E0C1
:103C2000F5018083B401C7010E947028F5019283D9
:103C3000818380E090E0DF91CF911F910F91FF9001
:103C4000EF90DF90CF90BF90AF909F908F907F903C
:103C50006F90089587E197E0089580E008950F93AD
:103C60001F93CF93DF938B01BA01E9011982188268
:103C70009801012E000C440B550BFC0181819281AF
:103C80000E947912019621F01983088380E001C017
:103C900081E0DF91CF911F910F9108950F931F93B2
:103CA000CF93DF931F921F92CDB7DEB7FB018A013E
:103CB000B9019E012F5F3F4FAF01FC0181819281CD
:103CC0000E948728019639F089819A81F8019183B1
:103CD000808380E001C081E00F900F90DF91CF9151
:103CE0001F910F910895FC01808108950895089512
:103CF00081E0FB01808380E00895089510924107E0
:103D00000895FC01818192810C946728CF93DF9301
:103D1000CDB7DEB72A970FB6F894DEBF0FBECDBF82
:103D2000AC01CB0160E070E049835A836B837C83F4
:103D3000092E000CAA0BBB0B8D839E83AF83B88723
:103D40009E01275F3F4FAE014F5F5F4F68E070E01D
:103D5000809130079091310782DF811108C081E0A6
:103D600029853A852830310519F480E001C081E0C9
:103D70002A960FB6F894DEBF0FBECDBFDF91CF916C
:103D800008950F931F93CF93DF931F921F92CDB788
:103D9000DEB78B019E012F5F3F4FAC018091300752
:103DA000909131075CDF811108C081E029813A815F
:103DB0002017310719F480E001C081E00F900F90C7
:103DC000DF91CF911F910F910895CF93DF93EC0175
:103DD00010923407109233071092400710923F0759
:103DE000AC0160E070E0CB010E94E80BAE0161E045
:103DF00070E080E090E00E94E80B809130079091A5
:103E00003107DF91CF9179CF4F925F926F927F927E
:103E10008F929F92AF92BF92CF92DF92EF92FF92DA
:103E20000F931F93CF93DF931F921F92CDB7DEB7EF
:103E30009C016C0197FF03C087E0C80ED11C43E0D2
:103E4000D594C7944A95E1F7C90168E070E00E94F3
:103E5000492D7C0189010E5F1F4F80912E079091A3
:103E60002F07801791070CF0DCC080912C079091F0
:103E70002D07009731F00E94652E10922F071092A7
:103E80002E07C8010E94D02D90932D0780932C07F8
:103E9000892B29F010932F0700932E07C2C0A12C65
:103EA000B12CAC14BD040CF05EC0412C512C32017D
:103EB00000E010E098012B5C384FAE014F5F5F4F80
:103EC00061E070E08091300790913107E7DE811169
:103ED00098C189819A812FEF421A520A620A720AA6
:103EE00020E942162FE5520621E0620671043CF0FB
:103EF00060913F07709140078DEE90E02DC0080F54
:103F0000191F0A30110551F549E050E060E070E0FA
:103F100085E397E00E94122960913F077091400766
:103F20008823C1F080913D0790E06817790709F078
:103F3000B8CF8EEE90E0EADE80913F079091400787
:103F4000019699279093400780933F078FEFA81A17
:103F5000B80AA7CF8FEE90E0D9DEA7CF0A301105BF
:103F60000CF4A8CF9ECFEF2809F44BC1C12CD12C63
:103F7000760100E010E098012B5C384FAE014F5FF6
:103F80005F4F61E070E0809130079091310786DEED
:103F9000811137C189819A812FEFC21AD20AE20AB0
:103FA000F20A20E9C2162FE5D20621E0E206F1046A
:103FB0003CF060913F07709140078DEE90E02AC081
:103FC000080F191F0A30110539F549E050E060E08B
:103FD00070E085E397E00E94122960913F0770919D
:103FE00040078823A9F080913D0790E06817790782
:103FF00009F007C18EEE90E089DE80913F07909135
:104000004007019699279093400780933F07F9C096
:104010008FEE90E07BDEAACF0A3011050CF4ABCF17
:10402000F0C000E010E00C151D050CF077C0412C2D
:10403000512C3201A12CB12C480193E0880C991C21
:104040009A95E1F720912C0730912D07C4018A0D34
:104050009B1D280F391FAE014F5F5F4F61E070E07D
:10406000809130079091310719DE8111CAC0898192
:104070009A812FEF421A520A620A720A20E9421606
:104080002FE5520621E0620671043CF060913F0783
:10409000709140078DEE90E034C0A80EB91E8AE002
:1040A000A816B104A9F549E050E0B40180912C07AD
:1040B00090912D070E94122960913F07709140074F
:1040C0008823E9F080912C0790912D07FC01E80DE1
:1040D000F91D808590E06817790709F0A4CF8EEE6E
:1040E00090E014DE80913F07909140070196992758
:1040F0009093400780933F070F5F1F4F94CF8FEE41
:1041000090E004DE412C512C3201A12CB12C9ACF2D
:104110002AE0A216B1040CF495CF85CFE114F10486
:1041200009F46AC0680183E0CC0CDD1C8A95E1F7D4
:10413000812C912C540100E010E098012B5C384F49
:10414000AE014F5F5F4F61E070E08091300790916A
:104150003107A4DD811155C089819A812FEF821A20
:10416000920AA20AB20A20E982162FE5920621E0FD
:10417000A206B1043CF060913F07709140078DEEBC
:1041800090E034C0080F191F0A30110589F549E085
:1041900050E060E070E085E397E00E9412296091B2
:1041A0003F07709140078823F9F080913D0790E028
:1041B0006817790709F58EEE90E0A8DD80912C074D
:1041C00090912D07A70165E377E08C0D9D1D0E945E
:1041D000FD2E80913F07909140070196992790937B
:1041E000400780933F0708C08FEE90E08FDDA0CF9F
:1041F0000A3011050CF4A1CF80912C0790912D0766
:1042000002C080E090E00F900F90DF91CF911F915E
:104210000F91FF90EF90DF90CF90BF90AF909F9065
:104220008F907F906F905F904F900895CF92DF9224
:10423000EF92FF920F931F93CF93DF931F92CDB70F
:10424000DEB76C017B018A01452B31F0AB0160E0E8
:1042500070E0C801E3D78983B701C60157DD81113A
:104260000DC00115110551F0B701C8018ADD81119A
:1042700005C061E070E0CE01019683DD0F90DF9113
:10428000CF911F910F91FF90EF90DF90CF90089505
:10429000CF92DF92EF92FF92CF93DF93CDB7DEB74D
:1042A00028970FB6F894DEBF0FBECDBF6B01E12C8F
:1042B000F12CC982DA82EB82FC822D833E834F830C
:1042C0005887AE014F5F5F4F68E070E0AFDF289620
:1042D0000FB6F894DEBF0FBECDBFDF91CF91FF9038
:1042E000EF90DF90CF9008950F931F93CF93DF93BC
:1042F000EC018B01AFDC909331078093300700977E
:1043000039F0A801BE0149DCEC01892B19F40BC07E
:10431000C8E8D3E08091300790913107E7DC109234
:10432000310710923007CE01DF91CF911F910F918D
:1043300008958091300790913107D5CC2F923F920C
:104340004F925F926F927F928F929F92AF92BF92A5
:10435000CF92DF92EF92FF920F931F93CF93DF9351
:10436000CDB7DEB769970FB6F894DEBF0FBECDBFED
:1043700020913407222309F426C25D8B4C8B688B75
:10438000798B8A8B9B8B9A01AB01BC01CE01019684
:104390000E94E81010E038E0232E312C89819A81A8
:1043A000181619060CF00AC21F861E861D861C866A
:1043B00089819A81AC85BD85A817B9070CF0F3C136
:1043C000EB81FC812E853F85E20FF31F2081318137
:1043D00030932B0720932A07848195819093290796
:1043E00080932807428153815093270740932607E3
:1043F000468157815093250740932407820F931FCE
:104400009C01990F440B550B2E8B3F8B488F598F76
:10441000C12CD12C76012E893F89488D598DC21629
:10442000D306E406F50608F0A2C11F8260912A07B0
:1044300070912B078B01072E000C220B330BD70139
:10444000C6010496A11DB11D80179107A207B307ED
:1044500028F4E0912607F09127070AC0E4E0F0E095
:10446000E61BF70BEC0DFD1D8091240790912507AD
:10447000E80FF91F4080512C612C712CD701C60127
:104480000596A11DB11D80179107A207B30728F457
:10449000E0912607F09127070AC0E5E0F0E0E61B6F
:1044A000F70BEC0DFD1D8091240790912507E80F77
:1044B000F91F8081582AD701C6010696A11DB11D9A
:1044C00080179107A207B30728F4E0912607F0911F
:1044D00027070AC0E6E0F0E0E61BF70BEC0DFD1D38
:1044E0008091240790912507E80FF91F8081682AA1
:1044F000D701C6010796A11DB11D80179107A2071C
:10450000B30728F4E0912607F09127070AC0E7E0F7
:10451000F0E0E61BF70BEC0DFD1D80912407909158
:104520002507E80FF91F8081782A4601570148E0E6
:10453000840E911CA11CB11C081519052A053B0508
:1045400008F4B4C0C016D106E206F30638F4809130
:104550002607909127078C0D9D1D09C0C601861B5B
:10456000970B2091240730912507820F931F68E055
:1045700070E007DCE0912A07F0912B079F010F2ED6
:10458000000C440B550BD301C201880D991DAA1DC7
:10459000BB1D281739074A075B07C8F08216930628
:1045A000A406B50638F42091260730912707C601E6
:1045B000089609C0C1018E1B9F0B8C0D9D1D20917B
:1045C000240730912507820F931FB20199C08601FD
:1045D000BF01685071096C197D0982169306A40603
:1045E000B50638F42091260730912707C6010896B2
:1045F00009C0C1018E1B9F0B8C0D9D1D20912407AE
:1046000030912507820F931FBCDB80912A07909180
:104610002B07B101681B790B600F711F640D751DAD
:104620008091240790912507ACDB80912A07909117
:104630002B07AC0148505109FA01E01BF10BAC010A
:10464000092E000C660B770B84169506A606B70696
:1046500038F42091260730912707C60108960AC032
:104660009101281B390BC9018C0D9D1D2091240738
:1046700030912507820F931FAF0160E070E0CED527
:104680008F8320912A0730912B07A101421B530BE6
:104690009A01200F311F240D351D40E050E0682F96
:1046A0008091240790912507A5D550C0C016D1064A
:1046B000E206F306C8F46C197D09809126079091F3
:1046C00027078C0D9D1D5DDB80912A0790912B079C
:1046D000B101681B790B6C0D7D1D640D751D8091FA
:1046E0002407909125070CC0C601861B970B2091CB
:1046F000240730912507B201685F7F4F820F931F17
:1047000040DB80912A0790912B07AC01092E000C09
:10471000660B770B84169506A606B70638F420912B
:10472000260730912707C60108960AC0D101A81BA9
:10473000B90BCD018C0D9D1D2091240730912507CB
:10474000820F931FA20160E070E068D58F8361E063
:1047500070E0CE01079615DB182FB8E04B0E511C08
:10476000611C711CC40CD51CE61CF71C54CE8C8536
:104770009D85880F991FED81FE81E80FF91F4889FB
:1047800059896A897B89808191810E941A0C4C85A4
:104790005D854F5F5F4F5D874C878E859F8508964F
:1047A0009F878E8705CE2C893D89488959896A89DA
:1047B0007B89CE0101960E94E810F0CD112319F0FB
:1047C0008C899D8902DB69960FB6F894DEBF0FBE17
:1047D000CDBFDF91CF911F910F91FF90EF90DF90B0
:1047E000CF90BF90AF909F908F907F906F905F9091
:1047F0004F903F902F900895CF93DF93EC01AC0141
:1048000060E070E0CB019ADDAE0161E070E080E035
:1048100090E0DF91CF9192CDCF938091300790912E
:1048200031071BDAC82F81110BC060E070E0CB01AB
:104830000E94F00661E070E080E090E00E94F006E7
:104840008C2FCF9108950F931F9389019A01AB018B
:10485000BC01809130079091310749DA1F910F9187
:1048600008953F924F925F926F927F928F929F92A4
:10487000AF92BF92CF92DF92EF92FF920F931F936E
:10488000CF93DF93CDB7DEB767970FB6F894DEBF4F
:104890000FBECDBF6C017B015A0180913407882384
:1048A00031F080913407882309F45EC30AC064E3C1
:1048B00077E080913007909131071ADA811154C363
:1048C000F0CF809133071A821982882309F46AC0D5
:1048D000E0E94E2EEFE55E2E66246394712C00E035
:1048E00010E09801265E384FAE014F5F5F4F61E0E8
:1048F00070E08091300790913107D0D9982E8111C6
:104900004DC089819A81080F191F0115110509F4FD
:1049100045C081E0481A51086108710839F4609176
:104920003F07709140078DEE90E030C00A301105CE
:1049300089F549E050E060E070E08AE197E072D4E8
:1049400060913F07709140078823F1F08091220722
:1049500090E068177907D9F48EEE90E0D7D988E017
:10496000EAE1F7E0DE01199601900D928A95E1F7F0
:1049700020913F07309140072F5F3F4F33273093FF
:10498000400720933F070AC08FEE90E0BFD91A82FC
:10499000198204C00A3011050CF4A3CF81E02981EB
:1049A0003A8124C000E010E078E0672E712C29E005
:1049B00030E02C0F3D1F200F311FAE014F5F5F4FC6
:1049C000B301601B710B809130079091310766D95C
:1049D000982E29813A81811108C0020F131F0115F9
:1049E000110519F00830110514F381E012161306B1
:1049F0000CF080E09110B5C2882309F4B5C2809113
:104A00003307811104C019861A861B861C86898586
:104A10009A85AB85BC858031910508F0A5C2FC0163
:104A20008827EA56FF4F8F4F0C949A2DD601169681
:104A3000ED91FC91179780819181A281B381898347
:104A40009A83AB83BC83AE014F5F5F4F64E070E03D
:104A500085E190E07EC18D859E85D6D9009731F4A1
:104A60002FEF3FEFA90161E070E00EC0FC018080F4
:104A70009180A280B380A701C501B4010E94930B6D
:104A8000A501940160E070E08DE190E068C28D8541
:104A90009E85BAD9009721F42FEF3FEFA90110C0EE
:104AA000DC018D909D90AD90BD90AD01950184018C
:104AB000B701C6010E943508A5019401882319F0A9
:104AC00061E070E002C060E070E08BE190E047C21E
:104AD0008D859E8599D9009721F42FEF3FEFA9018D
:104AE0000FC0FC0181909190A190B190BF01A501F0
:104AF0009401C6010E94380AA5019401882319F087
:104B000061E070E002C060E070E08CE190E027C2FC
:104B1000D6011496ED91FC91159700811181F80151
:104B200082809380A080B18060E1462E512C612C60
:104B3000712C49825A826B827C8288E090E0A0E0EE
:104B4000B0E08D839E83AF83B8879E012F5E3F4F79
:104B5000AE014F5F5F4F68E070E080913007909149
:104B600031077DD8882319F000E010E0BBC08989A7
:104B70009A890897C9F7D801ED90FC90B8E0EB0E40
:104B8000F11CEE0CFF1CEE0CFF1CC7010E94D02D87
:104B90008C01892B49F349825A826B827C82C7013E
:104BA0000F2C000CAA0BBB0B8D839E83AF83B887A1
:104BB0009E012F5E3F4FAE014F5F5F4F68E070E098
:104BC00080913007909131074AD881118BC0898933
:104BD0009A89089709F086C0D6011296ED91FC914A
:104BE00013974081518162817381D8014D935D9308
:104BF0006D937C93139744815581668177811496D8
:104C00004D935D936D937C93179740855185628595
:104C1000738518964D935D936D937C931B97848554
:104C20009585A685B785F80184879587A687B78778
:104C3000108A118A128A138A84E090E0A0E0B0E022
:104C4000848B958BA68BB78B8091A8029091A9023B
:104C5000A0E0B0E0808F918FA28FB38FC5010B2CA5
:104C6000000CAA0BBB0B848F958FA68FB78FF40116
:104C7000D801909680E090E08A159B0554F441910C
:104C8000519160E070E04D935D936D937D9301963B
:104C9000F3CF9E012F5E3F4FA801B70180913007EF
:104CA000909131070E942F1E81111CC089899A8919
:104CB0008E159F05B9F4A70160E070E0C801AED27F
:104CC0008B8B9E012F5E3F4FAE014D5E5F4F61E0CB
:104CD00070E080913007909131070E942F1E81E093
:104CE00080933307C80167960FB6F894DEBF0FBEF6
:104CF000CDBFDF91CF911F910F91FF90EF90DF908B
:104D0000CF90BF90AF909F908F907F906F905F906B
:104D10004F903F90DAC78D859E85AF85B889009703
:104D2000A105B10521F481E0809332071DC16CD843
:104D3000009789F481E090E0A0E0B0E089839A8355
:104D4000AB83BC83AE014F5F5F4F64E070E082E1F4
:104D500090E06CDA09C1BC01C6010E9443061982C9
:104D60001A821B821C82AE014F5F5F4F64E070E0CD
:104D700082E190E05BDA8111F7C0D5CFD6011496BD
:104D8000ED91FC9115970190F081E02D0085118542
:104D90008FEF89830115110509F472C0D8016D9058
:104DA0007C90A280B38020E030E060E070E080E0A2
:104DB00090E0861597050CF5F801A281B381A20F4A
:104DC000B31F1296ED91FC911397EE0FFF1FEA0DA2
:104DD000FB1D0190F081E02D16960D90BC91A02D49
:104DE000EA9FA001EB9F500DFA9F500D1124640F14
:104DF000751F0196285F3F4FDCCF83E190E00E9452
:104E0000861E8111B1C0C12CD12CE12CF12CE614ED
:104E1000F7047CF5D8011296ED91FC911397EC0DF7
:104E2000FD1D80809180A281B381AA0FBB1FAA0DB6
:104E3000BB1D2D913C9186819781289F2001299F40
:104E4000500C389F500C1124B201C4010E94C11EA5
:104E5000382E920140E050E06981C401CBD18983B2
:104E6000B8E0CB0ED11C31107FC0EFEFEE1AFE0A76
:104E7000CECF61E070E0CE0101960E94C11E74C0E9
:104E800060E070E083E190E00E94861E6DC040E02B
:104E900050E060E070E081E190E0C8D9811164C029
:104EA000812C912C5401C501B4010E941C088091F1
:104EB0006E04882321F0A701C501B4013FDAA701E0
:104EC000C501B4010E941C078A9489288A288B286E
:104ED00029F0812C912C54018394E5CF1092340752
:104EE000109233071092400710923F0780913007CD
:104EF000909131070E947E1E37C081E090E0909330
:104F0000700480936F0440E050E060E070E086E160
:104F100090E01FCF81E0D5018C9326C08D859E85C2
:104F20000E94041F009731F42FEF3FEFA90161E0C9
:104F300070E013C0FC012081318142815381CA019C
:104F4000B9012C8B3D8B4E8B5F8B0E94F30B2C8910
:104F50003D894E895F8960E070E08EE190E098D9EC
:104F600003C0C7010E94E51E67960FB6F894DEBF26
:104F70000FBECDBFDF91CF911F910F91FF90EF90AA
:104F8000DF90CF90BF90AF909F908F907F906F9069
:104F90005F904F903F900895CF92DF92EF92FF92F3
:104FA000CF93DF93EC01C12CD12C7601C701B60160
:104FB0000E941C08AE01C701B601C0D9AE01C701ED
:104FC000B6010E941C0780912C0790912D07009735
:104FD00029F07BD610922D0710922C07CA94CD2869
:104FE000CE28CF2829F0C12CD12C7601C394DECF56
:104FF00080913307882359F040E050E060E070E092
:1050000084E190E013D9F82E1092330701C0F12CFF
:1050100080913407882341F01092340781E090E0BA
:105020009093A9028093A802809130079091310754
:105030000E94811E80913007909131070E94761E58
:105040008F2DDF91CF91FF90EF90DF90CF9008955B
:10505000CF93DF93EC01AC0160E070E0CB010E94E4
:105060005910AE0161E070E080E090E0DF91CF91F7
:105070000C94591060E070E0CB010E94C51061E013
:1050800070E080E090E00C94C510CF92DF92EF9238
:10509000FF920F931F93CF93DF93EC016A017B0183
:1050A00000E010E098010E94430C01E010E020E0D5
:1050B00030E0B701A601CE010E94430CDF91CF91F1
:1050C0001F910F91FF90EF90DF90CF90089568EEC1
:1050D00073E080E090E00E942F1680E090E0089559
:1050E00026E040E050E16EE070E086E994E00E9446
:1050F0002D1986E994E00E947718892B29F086E91A
:1051000094E00E949118F5CF80E090E00895AF926E
:10511000BF92CF92DF92EF92FF920F931F93CF93A4
:10512000DF931F921F92CDB7DEB77A018901F90193
:105130001182108286E994E069837A830E9477184D
:1051400069817A81892B99F15B01DD24D39485E60D
:10515000C82E80914107811124C086E994E00E9405
:10516000911885369105A9F7D0924107F501C192B2
:105170005F01F80180819181019691838083E9CF5D
:1051800086E994E00E9491188F3FFFEF9F0749F056
:10519000F50181935F01F8018081918101969183EE
:1051A0008083F801808191818E159F0548F380E00E
:1051B00090E00F900F90DF91CF911F910F91FF9092
:1051C000EF90DF90CF90BF90AF9008950F931F9313
:1051D000CF93DF93EA01890186E994E00E940C1CD9
:1051E000F801D183C08380E090E0DF91CF911F91DF
:1051F0000F910895DC01A40FB51F240F351FAD01D9
:10520000481B590B4217530738F4ED91E627F0E09D
:10521000EB52FD4F6491F3CF862F08959A01AB01B5
:105220006FEFE8CFCF93FC01E60FF71FE40FF51FF8
:10523000C081F4DF91E0C81390E0892FCF910895E9
:105240008091430791E0980F90934307882349F09A
:1052500021E030E0309345072093440780934307D3
:10526000089578940E944102F894809143078150F8
:10527000809343070C946912FF920F931F93CF936F
:10528000DF931F921F92CDB7DEB7FF24F394FA820B
:105290000E9468160E945A1D0091610310916203DA
:1052A000F8011182108260E070E080E090E00E94DE
:1052B00072120E9437047894C80182960E9471127B
:1052C00081E090E00E946D121982AE014F5F5F4F46
:1052D00061E070E0F801828193810E941712898158
:1052E000882311F0F801F6A20E947812F8940E9427
:1052F000AC1DF80180819181892B19F481E096A180
:10530000911180E08A8378947894FF24F3948A81C1
:10531000882371F11982AE014F5F5F4F61E070E049
:10532000F801828193810E9453128981882311F0B0
:10533000F801F6A2F80180819181892B31F481E096
:1053400096A1911103C080E001C081E080934207E3
:105350009091420781E0911180E08A838A818823BD
:1053600019F00E94CB1D02C080E090E08A83CFCF6D
:1053700081E090E00E946F120E940F05F89480E097
:1053800090E00F900F90DF91CF911F910F91FF90C0
:1053900008955058BB27AA270ED075C166D130F0AA
:1053A0006BD120F031F49F3F11F41EF45BC10EF479
:1053B000E095E7FB51C1E92F77D180F3BA17620777
:1053C00073078407950718F071F49EF58FC10EF4EA
:1053D000E0950B2EBA2FA02D0B01B90190010C0105
:1053E000CA01A0011124FF27591B99F0593F50F41D
:1053F000503E68F11A16F040A22F232F342F442775
:10540000585FF3CF469537952795A795F04053956C
:10541000C9F77EF41F16BA0B620B730B840BBAF03C
:105420009150A1F0FF0FBB1F661F771F881FC2F7A7
:105430000EC0BA0F621F731F841F48F487957795BB
:105440006795B795F7959E3F08F0B3CF9395880F72
:1054500008F09927EE0F979587950895D9D008F40D
:1054600081E008950CD00FC107D140F0FED030F09C
:1054700021F45F3F19F0F0C0511139C1F3C014D1CC
:1054800098F39923C9F35523B1F3951B550BBB270B
:10549000AA2762177307840738F09F5F5F4F220FB8
:1054A000331F441FAA1FA9F333D00E2E3AF0E0E8B1
:1054B00030D091505040E695001CCAF729D0FE2FFD
:1054C00027D0660F771F881FBB1F2617370748078F
:1054D000AB07B0E809F0BB0B802DBF01FF27935845
:1054E0005F4F2AF09E3F510568F0B6C000C15F3F94
:1054F000ECF3983EDCF3869577956795B795F7952D
:105500009F5FC9F7880F911D9695879597F9089524
:10551000E1E0660F771F881FBB1F621773078407C0
:10552000BA0720F0621B730B840BBA0BEE1F88F7CF
:10553000E095089504D06894B111D9C00895BCD005
:1055400088F09F5790F0B92F9927B751A0F0D1F06C
:10555000660F771F881F991F1AF0BA95C9F712C0F6
:10556000B13081F0C3D0B1E00895C0C0672F782F6B
:105570008827B85F39F0B93FCCF386957795679562
:10558000B395D9F73EF490958095709561957F4FCE
:105590008F4F9F4F0895E89409C097FB3EF4909574
:1055A0008095709561957F4F8F4F9F4F9923A9F0FC
:1055B000F92F96E9BB279395F6958795779567958B
:1055C000B795F111F8CFFAF4BB0F11F460FF1BC0CF
:1055D0006F5F7F4F8F4F9F4F16C0882311F096E962
:1055E00011C0772321F09EE8872F762F05C0662310
:1055F00071F096E8862F70E060E02AF09A95660FC9
:10560000771F881FDAF7880F9695879597F9089581
:10561000990F0008550FAA0BE0E8FEEF16161706C3
:10562000E807F907C0F012161306E407F50798F02B
:10563000621B730B840B950B39F40A2661F0232B44
:10564000242B252B21F408950A2609F4A140A695C0
:105650008FEF811D811D089597F99F6780E870E0A5
:1056600060E008959FEF80EC089500240A941616D8
:10567000170618060906089500240A941216130640
:10568000140605060895092E0394000C11F48823CE
:1056900052F0BB0F40F4BF2B11F460FF04C06F5FEA
:1056A0007F4F8F4F9F4F089557FD9058440F551FC0
:1056B00059F05F3F71F04795880F97FB991F61F094
:1056C0009F3F79F087950895121613061406551F0B
:1056D000F2CF4695F1DF08C0161617061806991F77
:1056E000F1CF86957105610508940895E894BB276C
:1056F00066277727CB0197F908958ADF08F48FEFA3
:1057000008950BD0C0CFB1DF28F0B6DF18F0952395
:1057100009F0A2CFA7CF1124EACFC6DFA0F3959F4F
:10572000D1F3950F50E0551F629FF001729FBB2788
:10573000F00DB11D639FAA27F00DB11DAA1F649F34
:105740006627B00DA11D661F829F2227B00DA11DE7
:10575000621F739FB00DA11D621F839FA00D611D6D
:10576000221F749F3327A00D611D231F849F600D8E
:10577000211D822F762F6A2F11249F5750408AF0C7
:10578000E1F088234AF0EE0FFF1FBB1F661F771F53
:10579000881F91505040A9F79E3F510570F05CCF93
:1057A000A6CF5F3FECF3983EDCF38695779567953F
:1057B000B795F795E7959F5FC1F7FE2B880F911D71
:1057C0009695879597F90895FA01EE0FFF1F309689
:1057D0002105310599F16115710561F48038BFE348
:1057E0009B0749F168949038810561F08038BFEFDC
:1057F0009B0741F0992342F5FF3FE1053105210563
:1058000011F1E8940894E795D901AA2329F4AB2F64
:10581000BE2FF85FD0F310C0FF5F70F4A695E0F7DD
:10582000F73950F019F0FF3A38F49F779F930CD076
:105830000F9007FC905808953EF014CF60E070E0A0
:1058400080E89FE308954FE79F775F934F933F93DF
:105850002F939ED02F913F914F915F9152DF05C0C2
:1058600019F40EF0F9CE42CFFDCE26DFC8F39638FC
:10587000C0F707F80F92E8942BE33AEA48EB5FE7AA
:105880004EDF0F920F920F924DB75EB70F92C0D0BE
:10589000ECE4F1E016D04F915F91EF91FF91E59527
:1058A000EE1FFF1F49F0FE57E0684427EE0F441F2C
:1058B000FA95E1F74195550B32D00F9007FE26C0BF
:1058C0000895DF93CF931F930F93FF92EF92DF9290
:1058D0007B018C01689405C0DA2EEF011EDFFE010A
:1058E000E894A5912591359145915591AEF3EF013D
:1058F00062DDFE019701A801DA9479F7DF90EF905D
:10590000FF900F911F91CF91DF9108959B01AC0102
:1059100060E070E080E89FE3A5CD9ECEACC0CCDE19
:10592000E8F39923D9F3940F511DBBF391505040E4
:1059300094F059F0882332F0660F771F881F91503A
:105940005040C1F79E3F510544F7880F911D969531
:10595000879597F908955F3FACF0983E9CF0BB2780
:10596000869577956795B79508F4B1609395C1F7DB
:10597000BB0F58F711F460FFE8CF6F5F7F4F8F4F79
:105980009F4FE3CFB4CE0EF076C06CCE689464CE59
:1059900093DEC8F39923D1F3C6F3DF93CF931F931C
:1059A0000F93FF92C92FDD2788232AF02197660FD6
:1059B000771F881FDAF720E030E040E85FEB9FE3D5
:1059C000883920F0803E30F021968F77E3DCE4E7E1
:1059D000F1E003C0DFDCE1EAF1E073DF8B01BE013F
:1059E000EC01FB2E6F5771097595771F880B990B8A
:1059F000D4DD28E132E741E35FE38FDEAF2D98018C
:105A0000AE01FF900F911F91CF91DF91D4DC3BCE7F
:105A1000FA01DC01AA0FBB1F9B01AC01BF5728F4A0
:105A200022273327442750781FC0B75188F4AB2F63
:105A30000024469537952795011CA395D2F30020A5
:105A400069F0220F331F441FB395DAF30DD0A1CCB8
:105A500061307105A0E88A07B94630F49B01AC01BA
:105A60006627772788279078309621F02083318326
:105A70004283538308959F3F31F0915020F48795DE
:105A800077956795B795880F911D9695879597F9A6
:105A9000089597FB072E16F4009406D077FD08D0E2
:105AA00051D007FC05D03EF4909581959F4F089505
:105AB000709561957F4F0895A1E21A2EAA1BBB1B1A
:105AC000FD010DC0AA1FBB1FEE1FFF1FA217B307CA
:105AD000E407F50720F0A21BB30BE40BF50B661FE0
