:100000005FC100001CC5000045C500006EC50000B2
:1000100097C50000C0C50000E9C5000012C6000079
:100020003BC600007EC100007CC100007AC1000018
:1000300078C100000C94BD0D74C1000072C10000B5
:1000400070C100006EC100006CC100006AC10000F8
:1000500068C1000066C1000064C1000048C600001D
:1000600060C100000C94550A0C948B0A5AC1000020
:1000700058C1000056C1000054C1000052C1000028
:1000800050C100004EC100004CC100004AC1000038
:100090000C94E10A0C94170B44C1000042C100000B
:1000A00040C100003EC100003CC100003AC1000058
:1000B00038C1000036C1000034C1000032C1000068
:1000C00030C100002EC100000C94400E0C946D0B4A
:1000D0000C94A30B26C100000C94F90B0C942F0C6C
:1000E00020C10000D907DE07E307ED07F707700816
:1000F0000108090811081B0825082F083E084808B0
:10010000700852085C0866089408970886088A08F0
:100110009008CE089B089F08A508A908AD08B30859
:10012000B708BB08CE08C108C508C908076342362E
:10013000B79BD8A71A39685618AEBAAB558C1D3C78
:10014000B7CC5763BD6DEDFD753EF6177231BF003C
:100150000000803F08000000BE922449123EABAA76
:10016000AA2ABECDCCCC4C3E00000080BEABAAAAD1
:10017000AA3E00000000BF000000803F0000000019
:1001800000084178D3BB4387D1133D190E3CC3BD52
:100190004282AD2B3E68EC8276BED98FE1A93E4CFF
:1001A00080EFFFBE01C4FF7F3F00000000000000A1
:1001B0000A0B02090C0D0E080703040100000000E1
:1001C000000000000000000000000000000000002F
:1001D00000000000000000000000121110000000EC
:1001E000000000000000000000000000000000000F
:1001F00000000000010210202008081020401020FC
:1002000040800201020108040201010204081020DA
:1002100040808040201008040201800402018040D8
:100220002010080402010804020101020408102041
:1002300040800102040810204080050505050705DF
:1002400008080808020202020A0A08080404040452
:10025000010101010101010103030303030303037E
:10026000040707070C0C0C0C0C0C0C0C020202020D
:1002700006060606060606060B0B0B0B0B0B0B0BF6
:1002800000002200250028002B002E003100340041
:1002900002010000050108010B01000021002400FB
:1002A00027002A002D003000330001010000040166
:1002B00007010A010200B40A400BCC0B580CC40C15
:1002C00011241FBECFEFD1E2DEBFCDBF00E00CBFD7
:1002D00012E0A0E0B2E0E8E6F5E200E00BBF02C009
:1002E00007900D92A037B107D9F725E0A0E7B2E05B
:1002F00001C01D92A434B207E1F711E0C0E6D1E0DD
:1003000000E006C021970109802FFE010E94AA1279
:10031000CB35D10780E00807A9F70E94A70E0C94FF
:10032000B2126ECE1F93CF93DF931F92CDB7DEB77D
:10033000162F61E0812F798332D7812F7981972F12
:100340000F90DF91CF911F9108950895CF93C82FFB
:10035000CB01BA010E94BD0F8C2FCF9103C64F92E3
:100360005F926F927F928F929F92AF92BF92CF9245
:10037000DF92EF92FF92CF93DF93CDB7DEB7609716
:100380000FB6F894DEBF0FBECDBF2091260230918C
:100390002702409128025091290260911602709123
:1003A000170280911802909119020E94A4106B010B
:1003B0007C018090220290902302A0902402B090B1
:1003C00025029B01AC01C501B4010E94ED0E9B0109
:1003D000AC0160E070E080E89FE30E94550F698700
:1003E0007A878B879C87A5019401C701B6010E947B
:1003F000EC0E29853A854B855C850E94A4104B0143
:100400005C0162E375E080E495E07AD120914005DB
:1004100030914105409142055091430560912A0277
:1004200070912B0280912C0290912D020E94EC0E73
:100430006B017C014090360550903705609038057F
:1004400070903905A3019201C501B4010E94A41066
:100450004B015C0120910A0230910B0240910C0289
:1004600050910D02C701B6010E94A410A50194018C
:100470000E94EC0E69837A838B839C8320910E0209
:1004800030910F024091100250911102C701B60144
:100490000E94A41020913A0230913B0240913C020C
:1004A00050913D020E94A4104B015C0120913A053D
:1004B00030913B0540913C0550913D050E94ED0E69
:1004C0006D837E838F83988720911A0230911B025F
:1004D00040911C0250911D02C701B6010E94A41058
:1004E0002D813E814F8158850E94ED0E6D877E875C
:1004F0008F87988B20912E0230912F0240913002ED
:100500005091310269817A818B819C810E94A41073
:100510006B017C0120913202309133024091340210
:1005200050913502C301B2010E94A4109B01AC019D
:10053000C701B6010E94ED0E29853A854B855C8581
:100540000E94A410209116023091170240911802C7
:10055000509119020E94A4102D853E854F8558891F
:100560000E94ED0E6B017C0140901E0250901F0214
:1005700060902002709021029201A3010E94A010BD
:10058000181684F0409012025090130260901402EA
:10059000709015029201A301B601C7010E94510F8C
:1005A00087FF02C062017301A601B7018091300587
:1005B00090913105CBDE62E375E080E495E0F4D103
:1005C00089819A81AB81BC818093360590933705F0
:1005D000A0933805B09339052D813E814F81588510
:1005E000C501B4010E94ED0E60933A0570933B057E
:1005F00080933C0590933D0560960FB6F894DEBF5E
:100600000FBECDBFDF91CF91FF90EF90DF90CF90E5
:10061000BF90AF909F908F907F906F905F904F9022
:100620000895EF92FF920F931F93CF93DF93109251
:100630003F0510923E051092400510924105109220
:10064000420510924305CAE1D5E084E2FE01119211
:100650008A95E9F722E32E8393E39F8384E38887D7
:1006600085E3898786E38A8787E38B8788E38C879E
:1006700089E38D8781E38E8730E33F87888B898B81
:100680008A8B2B8B8C8B9D8B81E090E0A0E0B0E07F
:1006900089839A83AB83BC83E12CF12C8701A80169
:1006A00097016DE070E080E090E03CDE9F8B8E8BE8
:1006B0004CDE81E08D83E88EF98E0A8F1B8FEAE095
:1006C000F2E084A595A5A6A5B7A58C8F9D8FAE8FCA
:1006D000BF8F84A995A9A6A9B7A988A399A3AAA3FE
:1006E000BBA3DF91CF911F910F91FF90EF900895E1
:1006F00080911A05811103C081E080931A05089545
:100700004F925F926F927F928F929F92AF92BF9221
:10071000CF92DF92EF92FF920F931F93CF93DF93CD
:10072000CDB7DEB728970FB6F894DEBF0FBECDBFAA
:100730008C0120E030E040E85FE3FB0160817181E3
:10074000828193810E94510F811117C11AD30E9497
:10075000EE0F6B017C0160917002709171028091CB
:100760007202909173020E94F00F20914202309128
:10077000430240914402509145020E94ED0E9B01BC
:10078000AC01C701B6010E94510F87FDDFCFF9D23E
:10079000609370027093710280937202909373025F
:1007A0004091780250917902052E000C660B770B70
:1007B0008091740290917502A0917602B0917702B7
:1007C000841B950BA60BB70B809374029093750254
:1007D000A0937602B0937702E8E7F2E082819381FA
:1007E0008193919382E0EA38F807C1F78FE095D3BF
:1007F00090938B0280938A026C01990FEE08FF0898
:100800004091740250917502609176027091770266
:10081000CB01BA016C0D7D1D8E1D9F1D609374026E
:100820007093750280937602909377022AE030E00D
:1008300040E050E00E948E12CA01B9010E94F00F00
:1008400020E030E040EA5BE30E94A4106B017C01F1
:1008500020E030E040EC50E40E9407114B015C01C5
:1008600020E030E040EA50E4C701B6010E940711E1
:100870002B013C0120E030E040E850E4C701B60124
:100880000E94071169837A838B839C8320E030E088
:1008900040E450E4C701B6010E9407116D837E83D6
:1008A0008F8398872EE836E040EA5FE3C501B40104
:1008B0000E94A4104B015C0122E03BE243E851E4BA
:1008C000C301B2010E94A4109B01AC01C501B40197
:1008D0000E94EC0E4B015C012CE437EF49EA52E434
:1008E00069817A818B819C810E94A4109B01AC015B
:1008F000C501B4010E94ED0E4B015C0123EC35E70C
:1009000041E653E46D817E818F8198850E94A41019
:100910009B01AC01C501B4010E94EC0E4B015C01CE
:10092000A7019601C701B6010E94A41026E636E68B
:1009300045EA53E40E94A4109B01AC01C501B40137
:100940000E94ED0E4B015C012DEC3CE048E853E4C5
:10095000C701B6010E94A4109B01AC01C501B401FE
:100960000E94EC0E24EA30E741EF52E40E94ED0EC3
:10097000F801608371838283938328960FB6F8947D
:10098000DEBF0FBECDBFDF91CF911F910F91FF90C2
:10099000EF90DF90CF90BF90AF909F908F907F901F
:1009A0006F905F904F9008950F931F93CF93DF93B5
:1009B0008B0120E030E0A901FB016081718182811F
:1009C00093810E94510F811133C060E08FE0E7D323
:1009D000C8E7D2E08FE0A1D289939993092E000C49
:1009E000AA0BBB0B40917402509175026091760284
:1009F00070917702840F951FA61FB71F8093740212
:100A000090937502A0937602B09377026CE370E046
:100A100080E090E0E7D1F2E0CC38DF07D9F680E063
:100A200090E0A0E8BFE3F80180839183A283B383C1
:100A3000DF91CF911F910F910895089508951F920E
:100A40000F920FB60F9211240BB60F922F933F9374
:100A50004F935F936F937F938F939F93AF93BF93C6
:100A6000EF93FF93E0914A02F0914B021995FF91A9
:100A7000EF91BF91AF919F918F917F916F915F9116
:100A80004F913F912F910F900BBE0F900FBE0F9083
:100A90001F9018951F920F920FB60F9211240BB64C
:100AA0000F922F933F934F935F936F937F938F9307
:100AB0009F93AF93BF93EF93FF93E0914C02F0911C
:100AC0004D021995FF91EF91BF91AF919F918F9139
:100AD0007F916F915F914F913F912F910F900BBE3E
:100AE0000F900FBE0F901F9018951F920F920FB688
:100AF0000F9211240BB60F922F933F934F935F9356
:100B00006F937F938F939F93AF93BF93EF93FF93D5
:100B1000E0914E02F0914F021995FF91EF91BF9134
:100B2000AF919F918F917F916F915F914F913F9185
:100B30002F910F900BBE0F900FBE0F901F90189526
:100B40001F920F920FB60F9211240BB60F922F9394
:100B50003F934F935F936F937F938F939F93AF9345
:100B6000BF93EF93FF93E0915002F09151021995DA
:100B7000FF91EF91BF91AF919F918F917F916F9175
:100B80005F914F913F912F910F900BBE0F900FBE31
:100B90000F901F9018951F920F920FB60F9211246D
:100BA0000BB60F922F933F934F935F936F937F9367
:100BB0008F939F93AF93BF93EF93FF93E091460280
:100BC000F09147021995FF91EF91BF91AF919F91DD
:100BD0008F917F916F915F914F913F912F910F90E6
:100BE0000BBE0F900FBE0F901F9018951F920F9283
:100BF0000FB60F9211240BB60F922F933F934F9382
:100C00005F936F937F938F939F93AF93BF93EF9374
:100C1000FF93E0914802F09149021995FF91EF91FD
:100C2000BF91AF919F918F917F916F915F914F9104
:100C30003F912F910F900BBE0F900FBE0F901F9002
:100C400018951F920F920FB60F9211240BB60F92A8
:100C50002F933F934F935F936F937F938F939F93C4
:100C6000AF93BF93EF93FF93E0915202F091530241
:100C70001995FF91EF91BF91AF919F918F917F91C6
:100C80006F915F914F913F912F910F900BBE0F90FD
:100C90000FBE0F901F9018951F920F920FB60F92D4
:100CA00011240BB60F922F933F934F935F936F9343
:100CB0007F938F939F93AF93BF93EF93FF93E091B5
:100CC0005402F09155021995FF91EF91BF91AF91A8
:100CD0009F918F917F916F915F914F913F912F9154
:100CE0000F900BBE0F900FBE0F901F9018951F9284
:100CF0000F920FB60F9211242F933F938F939F93D0
:100D0000AF93BF9380918D0290918E02A0918F023C
:100D1000B091900230918C0223E0230F2D3720F404
:100D20000196A11DB11D05C026E8230F0296A11D45
:100D3000B11D20938C0280938D0290938E02A0931C
:100D40008F02B09390028091910290919202A091B3
:100D50009302B09194020196A11DB11D809391025E
:100D600090939202A0939302B0939402BF91AF919B
:100D70009F918F913F912F910F900FBE0F901F90D9
:100D800018952FB7F89460918D0270918E02809122
:100D90008F02909190022FBF08953FB7F8948091F1
:100DA000910290919202A0919302B091940226B583
:100DB000A89B05C02F3F19F00196A11DB11D3FBF93
:100DC000BA2FA92F982F8827820F911DA11DB11D21
:100DD000BC01CD0142E0660F771F881F991F4A951D
:100DE000D1F708958F929F92AF92BF92CF92DF92E8
:100DF000EF92FF926B017C01D0DF4B015C01C114CB
:100E0000D104E104F104F1F018DEC7DFDC01CB010D
:100E100088199909AA09BB09883E9340A105B10523
:100E200070F321E0C21AD108E108F10888EE880EBB
:100E300083E0981EA11CB11CC114D104E104F1048B
:100E400021F7DDCFFF90EF90DF90CF90BF90AF9074
:100E50009F908F900895789484B5826084BD84B506
:100E6000816084BD85B5826085BD85B5816085BDA5
:100E7000EEE6F0E0808181608083E1E8F0E01082BE
:100E8000808182608083808181608083E0E8F0E0FF
:100E9000808181608083E1EBF0E0808184608083E9
:100EA000E0EBF0E0808181608083E1E9F0E0808127
:100EB00082608083808181608083E0E9F0E08081CE
:100EC00081608083E1EAF0E08081826080838081BC
:100ED00081608083E0EAF0E0808181608083E1E2EC
:100EE000F1E0808182608083808181608083E0E2A4
:100EF000F1E0808181608083EAE7F0E080818460B6
:100F00008083808182608083808181608083808112
:100F1000806880831092C1000895863308F086535C
:100F200090917B00282F2870977F922B90937B00C5
:100F300087702091560290E4299F90011124822B02
:100F400080937C0080917A00806480937A00809105
:100F50007A0086FDFCCF809178002091790090E0A6
:100F6000922B08951F93CF93DF93182FEB0161E02D
:100F700016D1209711F460E004C0CF3FD10531F4C1
:100F800061E0812FDF91CF911F9145C1E12FF0E00A
:100F9000E255FE4FE4914E2F50E0FA013197E231D5
:100FA000F10508F09DC08827EE58FF4F8F4F0C9435
:100FB000AA1284B5806884BDC7BD97C084B580621D
:100FC00084BDC8BD92C080918000806880938000FD
:100FD000D0938900C093880088C08091800080628F
:100FE00080938000D0938B00C0938A007EC0809154
:100FF0008000886080938000D0938D00C0938C0027
:1010000074C08091B00080688093B000C093B3003A
:101010006CC08091B00080628093B000C093B40037
:1010200064C080919000806880939000D093990074
:10103000C09398005AC08091900080628093900085
:10104000D0939B00C0939A0050C08091900088601C
:1010500080939000D0939D00C0939C0046C08091E7
:10106000A00080688093A0008091A0008F7B809377
:10107000A000D093A900C093A80037C08091A00021
:1010800080628093A000D093AB00C093AA002DC0D3
:101090008091A00088608093A000D093AD00C093A1
:1010A000AC0023C080912001806880932001D09300
:1010B0002901C093280119C080912001806280938A
:1010C0002001D0932B01C0932A010FC080912001F1
:1010D000886080932001D0932D01C0932C0105C01E
:1010E000C038D1050CF04CCF46CFDF91CF911F9186
:1010F000089590E0FC013197E231F10508F04EC00F
:101100008827EC57FF4F8F4F0C94AA1280918000D4
:101110008F7703C0809180008F7D80938000089539
:1011200080918000877FF9CF84B58F7702C084B526
:101130008F7D84BD08958091B0008F7703C080912A
:10114000B0008F7D8093B0000895809190008F77DC
:1011500007C0809190008F7D03C080919000877FB1
:101160008093900008958091A0008F7707C08091B0
:10117000A0008F7D03C08091A000877F8093A00096
:101180000895809120018F7707C0809120018F7D85
:1011900003C080912001877F809320010895CF9321
:1011A000DF9390E0FC01EC50FE4F2491FC01E65CE3
:1011B000FD4F8491882361F190E0880F991FFC0115
:1011C000E656FD4FC591D491FC01E058FD4FA59125
:1011D000B491611109C09FB7F8948881209582234A
:1011E0008883EC912E230BC0623061F49FB7F89492
:1011F0003881822F809583238883EC912E2B2C932A
:101200009FBF06C08FB7F894E8812E2B28838FBF2D
:10121000DF91CF9108951F93CF93DF93282F30E074
:10122000F901E255FE4F8491F901EC50FE4FD49143
:10123000F901E65CFD4FC491CC23C1F0162F81115A
:1012400058DFEC2FF0E0EE0FFF1FE058FD4FA591A7
:10125000B4918FB7F894111105C09C91ED2FE095D2
:10126000E92302C0EC91ED2BEC938FBFDF91CF917E
:101270001F910895FC01918D228D892F90E0805C53
:101280009F4F821B91098F7399270895FC01918DBF
:10129000828D981731F0828DE80FF11D858D90E0D9
:1012A00008958FEF9FEF0895FC01918D828D98171F
:1012B00061F0828DDF01A80FB11D5D968C91928D3A
:1012C0009F5F9F73928F90E008958FEF9FEF089537
:1012D000FC01848DDF01A80FB11DA35ABF4F2C91D3
:1012E000848D90E001968F739927848FA689B789A2
:1012F0002C93A089B1898C9180648C93938D848D7B
:10130000981306C00288F389E02D80818F7D808349
:101310000895CF93DF93EC01888D8823C1F0EA898B
:10132000FB89808185FD05C0A889B9898C9186FDDE
:101330000EC00FB607FCF5CF808185FFF2CFA889DC
:10134000B9898C9185FFEDCFCE01C2DFE8CFDF9167
:10135000CF910895EF92FF920F931F93CF93DF9356
:10136000EC0181E0888F9B8D8C8D981305C0E889F6
:10137000F989808185FD23C0F62E0B8D10E00F5F6B
:101380001F4F0F731127E02E8C8DE8120BC00FB684
:1013900007FCFACFE889F989808185FFF5CFCE0176
:1013A00097DFF2CF8B8DFE01E80FF11DE35AFF4F5F
:1013B000F0820B8FEA89FB898081806207C0EE8909
:1013C000FF896083E889F98980818064808381E076
:1013D00090E0DF91CF911F910F91FF90EF900895D2
:1013E000CF92DF92EF92FF921F93CF93DF93EC01A6
:1013F0006A017B01122FE889F98982E08083411517
:10140000514E61057105B1F060E079E08DE390E047
:10141000A70196010E946C12DA01C9010197A10986
:10142000B109B695A79597958795AC01411580E1CF
:101430005807A8F0E889F989108260E874E88EE11D
:1014400090E0A70196010E946C12BA01A9014150D7
:101450005109610971097695679557954795EC850E
:10146000FD855083EE85FF854083188EEC89FD89CC
:101470001083EA89FB89808180618083EA89FB8906
:10148000808188608083EA89FB898081806880838D
:10149000EA89FB8980818F7D8083DF91CF911F91C5
:1014A000FF90EF90DF90CF9008951F920F920FB6AC
:1014B0000F9211240BB60F922F938F939F93EF935C
:1014C000FF93E091A502F091A6028081E091AB022A
:1014D000F091AC0282FD12C090818091AE028F5FCC
:1014E0008F732091AF02821751F0E091AE02F0E0CD
:1014F000EB56FD4F958F8093AE0201C08081FF9126
:10150000EF919F918F912F910F900BBE0F900FBE77
:101510000F901F9018951F920F920FB60F921124E3
:101520000BB60F922F933F934F935F936F937F93DD
:101530008F939F93AF93BF93EF93FF9385E992E0CF
:10154000C7DEFF91EF91BF91AF919F918F917F91F6
:101550006F915F914F913F912F910F900BBE0F9024
:101560000FBE0F901F901895E5E9F2E013821282EA
:1015700088EE93E0A0E0B0E084839583A683B783F0
:101580008EE592E09183808385EC90E09587848757
:1015900084EC90E09787868780EC90E0918B808B3D
:1015A00081EC90E0938B828B82EC90E0958B848B26
:1015B00086EC90E0978B868B118E128E138E148E94
:1015C00008951F920F920FB60F9211240BB60F922F
:1015D0002F938F939F93EF93FF93E0914203F091AA
:1015E00043038081E0914803F091490382FD12C0DA
:1015F000908180914B038F5F8F7320914C038217F2
:1016000051F0E0914B03F0E0EE5CFC4F958F80933E
:101610004B0301C08081FF91EF919F918F912F919A
:101620000F900BBE0F900FBE0F901F9018951F923A
:101630000F920FB60F9211240BB60F922F933F9378
:101640004F935F936F937F938F939F93AF93BF93CA
:10165000EF93FF9382E393E03BDEFF91EF91BF9125
:10166000AF919F918F917F916F915F914F913F913A
:101670002F910F900BBE0F900FBE0F901F901895DB
:10168000E2E3F3E01382128288EE93E0A0E0B0E0A0
:1016900084839583A683B7838EE592E091838083CC
:1016A0008DEC90E0958784878CEC90E09787868717
:1016B00088EC90E0918B808B89EC90E0938B828B0F
:1016C0008AEC90E0958B848B8EEC90E0978B868BE8
:1016D000118E128E138E148E08951F920F920FB6D4
:1016E0000F9211240BB60F922F938F939F93EF932A
:1016F000FF93E091DF03F091E0038081E091E50347
:10170000F091E60382FD12C090818091E8038F5F23
:101710008F732091E903821751F0E091E803F0E024
:10172000E153FC4F958F8093E80301C08081FF91C6
:10173000EF919F918F912F910F900BBE0F900FBE45
:101740000F901F9018951F920F920FB60F921124B1
:101750000BB60F922F933F934F935F936F937F93AB
:101760008F939F93AF93BF93EF93FF938FEC93E08F
:10177000AFDDFF91EF91BF91AF919F918F917F91DD
:101780006F915F914F913F912F910F900BBE0F90F2
:101790000FBE0F901F901895EFECF3E013821282AA
:1017A00088EE93E0A0E0B0E084839583A683B783BE
:1017B0008EE592E09183808385ED90E09587848724
:1017C00084ED90E09787868780ED90E0918B808B09
:1017D00081ED90E0938B828B82ED90E0958B848BF2
:1017E00086ED90E0978B868B118E128E138E148E61
:1017F00008951F920F920FB60F9211240BB60F92FD
:101800002F938F939F93EF93FF93E0917C04F0913C
:101810007D048081E0918204F091830482FD12C0F6
:101820009081809185048F5F8F7320918604821749
:1018300051F0E0918504F0E0E459FB4F958F8093DF
:10184000850401C08081FF91EF919F918F912F912D
:101850000F900BBE0F900FBE0F901F9018951F9208
:101860000F920FB60F9211240BB60F922F933F9346
:101870004F935F936F937F938F939F93AF93BF9398
:10188000EF93FF938CE694E023DDFF91EF91BF91FE
:10189000AF919F918F917F916F915F914F913F9108
:1018A0002F910F900BBE0F900FBE0F901F901895A9
:1018B000ECE6F4E01382128288EE93E0A0E0B0E060
:1018C00084839583A683B7838EE592E0918380839A
:1018D00085E391E09587848784E391E09787868705
:1018E00080E391E0918B808B81E391E0938B828BFD
:1018F00082E391E0958B848B86E391E0978B868BD6
:10190000118E128E138E148E08958F929F92AF9225
:10191000BF92CF92DF92EF92FF920F931F93CF93DC
:10192000DF937C018B016C0182E0C80ED11C470162
:10193000E5E08E0E911CC0E0D0E0F60161916F01F0
:101940004AE050E0C801C5D05C016EE2C80167D032
:101950008A0D9B1DC80FD91FC814D90471F74AE01E
:1019600050E0F7016581C801B4D08C0F9D1FDF9155
:10197000CF911F910F91FF90EF90DF90CF90BF908C
:10198000AF909F908F900895E9E0F5E08EE692E0A9
:101990009183808312821382148215820895CF92DC
:1019A000DF92EF92FF920F931F93CF93DF936C011F
:1019B0007A018B01C0E0D0E0CE15DF0589F0D801B7
:1019C0006D918D01D601ED91FC910190F081E02D9A
:1019D000C6011995892B11F47E0102C02196ECCF26
:1019E000C701DF91CF911F910F91FF90EF90DF9092
:1019F000CF9008956115710579F0FB0101900020E9
:101A0000E9F73197AF01461B570BDC01ED91FC91D3
:101A10000280F381E02D199480E090E00895DC01CC
:101A2000ED91FC910190F081E02D19944F925F921D
:101A30006F927F92EF92FF920F931F93CF93DF935A
:101A4000CDB7DEB7A1970FB6F894DEBF0FBECDBFFE
:101A50007C01FA01CB0119A2223008F42AE08E01A0
:101A60000F5D1F4F422E512C612C712CBF01A30121
:101A7000920132D5F901CA01015011096A3014F4FA
:101A8000605D01C0695CD8016C93232B242B252B4E
:101A900069F7B801C701AEDFA1960FB6F894DEBFB3
:101AA0000FBECDBFDF91CF911F910F91FF90EF90AF
:101AB0007F906F905F904F9008952115310541F40C
:101AC000DC01ED91FC910190F081E02D642F1994DF
:101AD000ADCF9A01462F50E060E070E0EECF82304B
:101AE000A9F028F4882349F0813051F0089584301A
:101AF00021F1E8F0853039F1089510926E000895D3
:101B000080916F008D7F80936F00089580917000A9
:101B10008D7F8093700081E08093B0008091B10050
:101B2000887F84608093B1001092B3000895809103
:101B300071008D7F809371000895809172008D7F78
:101B4000809372000895809173008D7F809373005D
:101B50000895CF93C82F809157028C1307C0E4EBF0
:101B6000F2E0E4918FEF8093570201C0EFEF8E2FE8
:101B7000B6DF60E08C2FCF914ECB1F920F920FB645
:101B80000F9211240BB60F922F933F934F935F93B5
:101B90006F937F938F939F93AF93BF93EF93FF9335
:101BA0008091120590911305A0911405B09115052F
:101BB000892B8A2B8B2B51F180910F05E091100519
:101BC000F091110590818927808380911205909171
:101BD0001305A0911405B0911505181619061A06DB
:101BE0001B06BCF48091120590911305A091140579
:101BF000B09115050197A109B10980931205909341
:101C00001305A0931405B093150503C080915702E6
:101C1000A0DFFF91EF91BF91AF919F918F917F9145
:101C20006F915F914F913F912F910F900BBE0F904D
:101C30000FBE0F901F90189540E052EC61E070E0ED
:101C400080E090E000C08130910571F01CF4892B98
:101C500039F008958230910559F0039769F008959D
:101C600026E085E992E00BC026E082E393E007C01E
:101C700026E08FEC93E003C026E08CE694E0B0CB46
:101C80001F920F920FB60F9211240BB60F922F9343
:101C90003F934F935F936F937F938F939F93AF93F4
:101CA000BF93EF93FF9386E997EE9093250180937E
:101CB000240134D0FF91EF91BF91AF919F918F910B
:101CC0007F916F915F914F913F912F910F900BBE3C
:101CD0000F900FBE0F901F90189586E997EE909386
:101CE000250180932401A3E7B0E08C918E7F8C9333
:101CF000E0E2F1E080818C7F8083E1E2F1E08081AD
:101D0000877E808380818460808380818C7F8083D4
:101D10008C9181608C93089581E0089580911705DE
:101D200091E0980F90931705882339F021E030E077
:101D3000309319052093180507C078940E94AF01CD
:101D4000F8948091170581508093170508950F939B
:101D50001F93CF93DF931F92CDB7DEB781E08983C6
:101D60007AD86ADF0091580210915902F801118265
:101D700010820E941103B1DF81E0F80120813181DE
:101D8000232B09F080E089837894789489818823D3
:101D9000C1F081E0F80120813181232B09F480E03A
:101DA000809316059091160581E0911180E089835A
:101DB0008981882311F0B0DF02C080E090E0898340
:101DC000E5CF0E947803F89480E090E00F90DF91D7
:101DD000CF911F910F9108955058BB27AA270ED07D
:101DE00075C166D130F06BD120F031F49F3F11F412
:101DF0001EF45BC10EF4E095E7FB51C1E92F77D1EA
:101E000080F3BA17620773078407950718F071F417
:101E10009EF58FC10EF4E0950B2EBA2FA02D0B016D
:101E2000B90190010C01CA01A0011124FF27591B1F
:101E300099F0593F50F4503E68F11A16F040A22F25
:101E4000232F342F4427585FF3CF46953795279596
:101E5000A795F0405395C9F77EF41F16BA0B620B95
:101E6000730B840BBAF09150A1F0FF0FBB1F661FDC
:101E7000771F881FC2F70EC0BA0F621F731F841F1F
:101E800048F4879577956795B795F7959E3F08F045
:101E9000B3CF9395880F08F09927EE0F9795879504
:101EA0000895D9D008F481E008950CD00FC107D16E
:101EB00040F0FED030F021F45F3F19F0F0C0511136
:101EC00039C1F3C014D198F39923C9F35523B1F361
:101ED000951B550BBB27AA2762177307840738F099
:101EE0009F5F5F4F220F331F441FAA1FA9F333D0F8
:101EF0000E2E3AF0E0E830D091505040E695001CAC
:101F0000CAF729D0FE2F27D0660F771F881FBB1F67
:101F1000261737074807AB07B0E809F0BB0B802D41
:101F2000BF01FF2793585F4F2AF09E3F510568F08D
:101F3000B6C000C15F3FECF3983EDCF38695779521
:101F40006795B795F7959F5FC9F7880F911D96958F
:101F5000879597F90895E1E0660F771F881FBB1FEB
:101F6000621773078407BA0720F0621B730B840B98
:101F7000BA0BEE1F88F7E095089504D06894B1116C
:101F8000D9C00895BCD088F09F5790F0B92F9927F9
:101F9000B751A0F0D1F0660F771F881F991F1AF074
:101FA000BA95C9F712C0B13081F0C3D0B1E008953D
:101FB000C0C0672F782F8827B85F39F0B93FCCF3BE
:101FC000869577956795B395D9F73EF4909580956A
:101FD000709561957F4F8F4F9F4F0895E89409C08A
:101FE00097FB3EF490958095709561957F4F8F4F4C
:101FF0009F4F9923A9F0F92F96E9BB279395F69562
:10200000879577956795B795F111F8CFFAF4BB0FDF
:1020100011F460FF1BC06F5F7F4F8F4F9F4F16C043
:10202000882311F096E911C0772321F09EE8872FCD
:10203000762F05C0662371F096E8862F70E060E089
:102040002AF09A95660F771F881FDAF7880F969502
:10205000879597F90895990F0008550FAA0BE0E8A6
:10206000FEEF16161706E807F907C0F0121613065A
:10207000E407F50798F0621B730B840B950B39F49A
:102080000A2661F0232B242B252B21F408950A2600
:1020900009F4A140A6958FEF811D811D089597F940
:1020A0009F6780E870E060E008959FEF80EC0895FE
:1020B00000240A9416161706180609060895002427
:1020C0000A9412161306140605060895092E0394A1
:1020D000000C11F4882352F0BB0F40F4BF2B11F415
:1020E00060FF04C06F5F7F4F8F4F9F4F089557FD74
:1020F0009058440F551F59F05F3F71F04795880F76
:1021000097FB991F61F09F3F79F08795089512160C
:1021100013061406551FF2CF4695F1DF08C01616B8
:1021200017061806991FF1CF869571056105089469
:102130000895E894BB2766277727CB0197F9089580
:102140008ADF08F48FEF08950BD0C0CFB1DF28F0FD
:10215000B6DF18F0952309F0A2CFA7CF1124EACF5C
:10216000C6DFA0F3959FD1F3950F50E0551F629FF6
:10217000F001729FBB27F00DB11D639FAA27F00DE0
:10218000B11DAA1F649F6627B00DA11D661F829F07
:102190002227B00DA11D621F739FB00DA11D621FEC
:1021A000839FA00D611D221F749F3327A00D611D09
:1021B000231F849F600D211D822F762F6A2F1124EB
:1021C0009F5750408AF0E1F088234AF0EE0FFF1F3E
:1021D000BB1F661F771F881F91505040A9F79E3F75
:1021E000510570F05CCFA6CF5F3FECF3983EDCF377
:1021F000869577956795B795F795E7959F5FC1F7B2
:10220000FE2B880F911D9695879597F90895FA01F1
:10221000EE0FFF1F30962105310599F1611571050B
:1022200061F48038BFE39B0749F1689490388105D9
:1022300061F08038BFEF9B0741F0992342F5FF3FE3
:10224000E1053105210511F1E8940894E795D901DC
:10225000AA2329F4AB2FBE2FF85FD0F310C0FF5F85
:1022600070F4A695E0F7F73950F019F0FF3A38F41A
:102270009F779F930CD00F9007FC905808953EF0E5
:1022800014CF60E070E080E89FE308954FE79F7708
:102290005F934F933F932F939ED02F913F914F91F8
:1022A0005F9152DF05C019F40EF0F9CE42CFFDCE9A
:1022B00026DFC8F39638C0F707F80F92E8942BE3AF
:1022C0003AEA48EB5FE74EDF0F920F920F924DB75D
:1022D0005EB70F92C0D0ECE2F1E016D04F915F9163
:1022E000EF91FF91E595EE1FFF1F49F0FE57E06863
:1022F0004427EE0F441FFA95E1F74195550B32D074
:102300000F9007FE26C00895DF93CF931F930F937E
:10231000FF92EF92DF927B018C01689405C0DA2E68
:10232000EF011EDFFE01E894A591259135914591BD
:102330005591AEF3EF0162DDFE019701A801DA9439
:1023400079F7DF90EF90FF900F911F91CF91DF9180
:1023500008959B01AC0160E070E080E89FE3A5CDAB
:102360009ECEACC0CCDEE8F39923D9F3940F511D77
:10237000BBF39150504094F059F0882332F0660F2F
:10238000771F881F91505040C1F79E3F510544F779
:10239000880F911D9695879597F908955F3FACF04A
:1023A000983E9CF0BB27869577956795B79508F47E
:1023B000B1609395C1F7BB0F58F711F460FFE8CFF8
:1023C0006F5F7F4F8F4F9F4FE3CFB4CE0EF076C03D
:1023D0006CCE689464CE93DEC8F39923D1F3C6F330
:1023E000DF93CF931F930F93FF92C92FDD2788238D
:1023F0002AF02197660F771F881FDAF720E030E078
:1024000040E85FEB9FE3883920F0803E30F0219672
:102410008F77E3DCE4E5F1E003C0DFDCE1E8F1E045
:1024200073DF8B01BE01EC01FB2E6F5771097595AF
:10243000771F880B990BD4DD28E132E741E35FE396
:102440008FDEAF2D9801AE01FF900F911F91CF91BC
:10245000DF91D4DC3BCEFA01DC01AA0FBB1F9B014C
:10246000AC01BF5728F422273327442750781FC0D8
:10247000B75188F4AB2F0024469537952795011C5A
:10248000A395D2F3002069F0220F331F441FB395A8
:10249000DAF30DD0A1CC61307105A0E88A07B94606
:1024A00030F49B01AC016627772788279078309617
:1024B00021F0208331834283538308959F3F31F07D
:1024C000915020F4879577956795B795880F911D62
:1024D0009695879597F90895A1E21A2EAA1BBB1B22
:1024E000FD010DC0AA1FBB1FEE1FFF1FA217B307E0
:1024F000E407F50720F0A21BB30BE40BF50B661FF6
:10250000771F881F991F1A9469F7609570958095B9
:1025100090959B01AC01BD01CF010895052E97FB5D
:1025200016F400940FD057FD05D0D6DF07FC02D07B
:1025300046F408C050954095309521953F4F4F4F38
:102540005F4F089590958095709561957F4F8F4F5F
:102550009F4F0895EE0FFF1F881F8BBF0790F691C6
:08256000E02D1994F894FFCF5F
:102568000000440580000100000000000000CDCC00
:102578004CBE000000000000C842FA6B01C0000019
:102588007F430000803FCDCC4C3D000070410000EF
:10259800803F000080BF00000000CDCC4C3D000013
:1025A8000000000070421E051E051E051E051E05C2
:1025B8001E051E051E0501FF3E0500000000AA09B4
:1025C800CF0C3A0954094609890900000000850C16
:00000001FF
